:020000040000FA
:10000000405900203538000061AA01002138000065
:10001000213800002138000021380000213800007C
:10002000000000000000000000000000ED390000AA
:100030002138000000000000853900002138000050
:10004000F13B0000F13B0000F13B0000F13B000000
:10005000F13B0000F13B0000F13B0000F13B0000F0
:10006000F13B0000F13B0000F13B0000F13B0000E0
:10007000F13B0000F13B0000F13B0000F13B0000D0
:10008000F13B0000F13B0000F13B0000F13B0000C0
:10009000F13B0000F13B0000F13B0000F13B0000B0
:1000A000F13B0000F13B0000F13B0000F13B0000A0
:1000B0003D000100F13B0000F13B0000F13B00007E
:1000C000F13B0000F13B0000F13B0000F13B000080
:1000D000F13B0000F13B0000F13B0000F13B000070
:1000E000F13B0000F13B0000F13B0000F13B000060
:1000F000F13B0000E7D50100F13B0000F13B0000BF
:10010000F13B0000F13B0000F13B0000F13B00003F
:10011000F13B0000F13B0000F13B0000F13B00002F
:10012000F13B0000F13B0000F13B0000F13B00001F
:10013000F13B0000F13B0000F13B0000F13B00000F
:10014000F13B0000F13B0000F13B0000F13B0000FF
:10015000F13B0000FFFFFFFF10F8012B11F8013BFE
:10016000012A28BF9A42F7D0D01A7047034611F8E7
:10017000012B03F8012B002AF9D17047034613F82D
:10018000012B002AFBD1181A01387047000000002B
:10019000F0B55E4D87B0D5F86831996811F001016E
:1001A0001AD140F6034005AA04F064FF0446002873
:1001B00040F0A9800598C3681B785BB905F1D403AA
:1001C000D3E8AF2F02F00902D3E8EF1FC3E8E42F12
:1001D000002CF9D10CF0DAFD002141F2030005AA50
:1001E00004F048FF0446002840F08D80059B484EEF
:1001F000DA68D2F80100D2F8051003C618460CF0F0
:10020000C5FD214641F2010005AA04F033FF044672
:10021000002878D10598C3685A7885F870205A88E4
:10022000A5F872201A7985F87120B3F80720A5F88F
:100230007420B3F80530A5F876300CF0A7FD214600
:1002400041F2020005AA04F015FF044600285AD125
:10025000059FFA68531C41323446186859680833C0
:1002600003C493422646F7D138460CF08FFD06F0C2
:10027000A5FC0446002846D195F88A309A060ED48B
:100280005721244819F038FE95F87C305B0645D498
:100290004521214819F030FE6FF0120433E00721A8
:1002A00040F6334004F09CFE0646002800F04081F2
:1002B00007210C300CF076FE452303700623C0F8AE
:1002C00002408471447004712246C370314640F686
:1002D000334004F0CFFE0446A8B9012140F6314076
:1002E00004F07EFE0646002800F0228101210C3039
:1002F0001CF01CFC2246314640F6314004F0BAFEA8
:1003000004460028C0D0204607B0F0BD0000002001
:10031000780000204214020075140200002142F20D
:10032000030005AA04F0A6FE04460028EBD1059BB5
:10033000A54EDA68D2F80100D2F8051003C61846B7
:100340000CF024FD214642F2020005AA04F092FEC0
:1003500004460028D7D1059CE368B3F8012091B288
:1003600049B1D97839B1A5F80421DA78114606F1F6
:1003700028001EF0B7F820460CF008FD95F87C60C8
:1003800016F0200618D1022140F66D4004F028FE38
:100390000446002800F0CC8002210C300CF002FE54
:1003A0000123214603704670324640F66D4004F04A
:1003B00061FE04460028A6D195F89C301F0712D58F
:1003C000002142F21C0005AA04F054FE0446002855
:1003D00099D10598C368D3F80120D3F80530C5E951
:1003E00038230CF0D3FC95F8D8309E0624D50DF1B7
:1003F000120104A804F0A4FE0446002883D10421BD
:1004000042F2240004F0ECFD0646002800F0908043
:1004100004210C300CF0C6FDBDF8103022460380DC
:10042000BDF812303146438042F2240004F022FE2F
:10043000044600287FF467AF95F8D8305C0610D5E5
:10044000002142F22A0005AA04F014FE0446002806
:100450007FF459AF0598C3685B7885F820310CF0BC
:1004600095FC082142F2010004F0BAFD0446002880
:100470005ED008210C300CF095FD95F8D81040F2B4
:10048000022311F0400F08BF0323024688074CBF28
:1004900043F02C0043F00C0095F8D9308F0648BF8C
:1004A00040F0400013F0090F95F8A23018BF40F457
:1004B000006003F00603CE0748BF40F01000062B93
:1004C00008BF40F4C07000211AF009FC2146002248
:1004D00042F2010004F0CEFD044600287FF413AF81
:1004E00095F87C30B5F80411980624D4C9B941F2C6
:1004F000050005AA04F0BEFD044600287FF403AF02
:10050000B5F80431059C4BB9E368B3F80120A5F8B0
:1005100004219A882D4811461DF0E4FF20460CF076
:1005200035FC082140F6014004F05AFD044658B954
:100530006FF06804E7E60029F3D14521244819F05B
:10054000DBFC6FF00404DEE608210C300CF02AFD21
:1005500095F8D8300246D9072ED44FF000511D48E7
:100560001AF0BDFB2146002240F6014004F082FD56
:10057000044600287FF4C7AE014605AA4FF60140A5
:1005800004F078FD70B35721134819F0B5FC1AF048
:1005900022FD044600287FF4B6AE07F09BFC04461B
:1005A00000287FF4B0AE0D48C379002B7AD14921E1
:1005B0000B4819F0A1FCA6E601A1D1E90001CFE7A3
:1005C0009088000200800020D80000200801002050
:1005D0009E14020010880002C614020000000020D1
:1005E000B8150200059D4921EC683248B4F8013085
:1005F000032B96BF304A314A52F8232019F07CFC75
:10060000B4F80120B4F80330022A2AD1052B28D8E7
:100610002B4A52F8232049212A4819F06DFCD4F8BE
:10062000091063790291B4F80710032B019198BF68
:10063000254AA17994BF52F82320204A23480091EB
:10064000492119F059FC28460CF0A0FB00214FF677
:10065000024005AA04F00EFD044620B157211C48B3
:1006600093E7164AD7E705981A4DC368B3F80130E7
:10067000A5F8C1300CF08AFB95F8C1305B0786D530
:1006800021464FF6034005AA04F0F4FC10B15721AF
:1006900011487AE70598C3685B7885F8C0300CF09C
:1006A00075FB74E70821D4301AF0F5FA05F05AFA10
:1006B00029E600BFEF14020058F3010055120200B2
:1006C00040F301000D15020030F301002A1502006D
:1006D0005C150200000000208A15020010B50C48CD
:1006E00018F0EDFC0B49002005F0DCFE014610B1CE
:1006F000094818F0E4FC1021084806F07BFA04468B
:1007000018B10146064818F0DAFC204610BD00BFBB
:1007100092FA01007E2B0020AFFA01006D2B002021
:10072000D8FA01003023F0B5A5B08DF80B304FF4A6
:100730008173ADF848300DF10B031393202301268C
:100740008DF850302F4B304A1593304B1B92169337
:100750002F4B304A0F9302231C920DAA1D9204AA1C
:10076000CDE90A2640F2015200258DF868308DF857
:100770008030294B294C2193294BADF814200AAA2B
:100780002946074606922293182205AB201D239383
:1007900017948DF834608DF83860ADF84050CDF87E
:1007A00044D0ADF8606019950C95ADF878601F9550
:1007B0001EF0E8F81B4B23600733A3601A4BE3607D
:1007C00005F0B6FA01AB636003AB236104238DF837
:1007D000083002AB636118ABA0610793384612ABD7
:1007E00007AA1EA9CDE908368DF80450ADF80C50C3
:1007F0001CF0D4FD20B90246014638460FF0F0FE49
:1008000025B0F0BD003A0200F4390200F3D0010037
:100810006E1602008DD20100FE390200C0140020C5
:100820004DD201007E2B00206D2B0020084008B522
:1008300003070FD50021084604F030FE014620B121
:10084000BDE80840044818F03ABC0448BDE8084038
:1008500018F035BC08BD00BFFFFA01001BFB01000A
:1008600008B5064814F04AF80022054910460BF076
:1008700021FEBDE80840034814F0DCBD0807002055
:10088000E108000044150020013910B503290BD8F8
:10089000DFE801F0020B121B0FF0AEFF01201CF08D
:1008A00045FB01220D4B1A7010BD0FF0A5FFBDE8EE
:1008B000104001201CF03DBB084C2378002BF3D0E6
:1008C000FFF7CEFF00232370EEE7002BECD0BDE84E
:1008D00010401946901C0FF0D9BD00BF34230020F2
:1008E00010B501460446002007F0B8F818B1BDE87D
:1008F000104006F0B9BD002200232146044813F041
:10090000C1FE20B1BDE81040024818F0D8BB10BDB0
:10091000080700202DFB010070B503788AB004465B
:100920000E4607AD032B20D8DFE803F002191B1D8C
:1009300011492846FFF71AFC059563781E21049398
:10094000A37830460393E3780C4A0293237901930A
:1009500063790093A37918F03FF80AB070BD084995
:10096000E7E70849E5E70849E3E70A212846074A97
:1009700018F032F8E0E700BF51FB01007AFB0100FC
:1009800058FB01005FFB010069FB010073FB0100E4
:1009900030B5154689B00C461AF0F7FC6946FFF7EA
:1009A000BBFF35B922466946054818F088FB09B0F7
:1009B00030BD2B4622466946024818F080FBF6E718
:1009C0009DFB0100BCFB010000B589B01AF0DDFC05
:1009D0006946FFF7A1FF6946024818F070FB09B0AD
:1009E0005DF804FBE1FB010010B588B00C461AF07D
:1009F000CCFC6946FFF790FF074B18780138C0B26E
:100A0000187008B91CF095FA22466946034818F098
:100A100056FB08B010BD00BF7D2B0020F8FB010085
:100A200030B50C4689B01AF0B0FC6946FFF774FF88
:100A300084B13C2C08D11048694618F040FB0F489F
:100A400014F0F8FC09B030BD224669460C4818F095
:100A500036FBF7E70B4D69462B780B4801332B70BB
:100A600018F02DFB20461CF061FA2B78002BE9D101
:100A7000FFF7F6FEE6E700BF1AFC01004415002070
:100A80003EFC01007D2B00205CFC010070B592B0A3
:100A900003AC0023002221461F4813F08FFE0346BB
:100AA000E8B923220146CDE90700ADF814008DF81E
:100AB000160006920090024605A8099405F046FF2C
:100AC00018B1164818F0FBFA07E020460AA9FFF70C
:100AD00023FF13480AA918F0F2FA12B070BD114DA5
:100AE0000AAC0FCD0FC42E680AAD266005AC0FCD41
:100AF0000FC40323069300230B49266002220093B0
:100B000005A805F023FF014620B110F1780F01D0B0
:100B10000648E0E70648D5E7080700206AFC010020
:100B200090FC010050EF010068F00100B2FC0100F0
:100B3000D8FC010010B50C4688B01AF026FC6946B6
:100B4000FFF7EAFE22466946074818F0B8FA002186
:100B5000064816F001FC00200AF09AFE00200AF078
:100B60009DFE08B010BD00BFF5FC0100341500204B
:100B700010B50C4688B01AF008FC6946FFF7CCFEA9
:100B800022466946074818F09AFA0021064816F0EE
:100B9000E3FB00200AF07CFE00200AF07FFE08B094
:100BA00010BD00BF19FD0100341500202DE9F041F2
:100BB0000B780546012B0F4690B01FD12B4818F03B
:100BC0007EFA284608A906F0A9FF0446B0B97E7847
:100BD000012E01D0264C6EB30C9E072230462549CB
:100BE0001DF015FE20B369463046FFF795FE6946B5
:100BF000214818F064FA28461AF0F1FB3B78A3B9B3
:100C00001E4C1F4818F05BFA21781E4A1E4B2846DE
:100C100000290CBF114619461AF0D6F9014610B149
:100C20001A4818F04CFA0023237010B0BDE8F08188
:100C3000174E74B1DDF82C800722404615491DF08F
:100C4000E6FD30B169464046FFF766FE6946124848
:100C5000CFE721463246284605F04AFC01460028E7
:100C6000CCD00E4818F02BFAC8E700BF3CFD0100BD
:100C7000852B0020362B002055FD01003523002058
:100C8000BEFD01006D2B00205D2B0020D9FD010071
:100C90003D2B00207E2B002079FD01009CFD0100F2
:100CA0002DE9F047C3680446B6B0FBB96FF01500F4
:100CB00036B0BDE8F087A36853F826000EF046FC76
:100CC00010B1A36853F826500136D4F80C904E4565
:100CD000F1D300264FF0140AB046B14509D1B8F15E
:100CE000000F16D1564818F0EAF9DFE700252E4626
:100CF000EBE767686B780AFB06773A799A4206D188
:100D0000B96868681DF083FD002808BFB846013641
:100D1000E3E798F80030013B012B01D94948E2E7AD
:100D200005F046FE962310A928460AAA0A930EF05B
:100D300023FC014610B1444818F0C1F910A80EF088
:100D400021FD119B187800F0FD00012801D03F48DB
:100D5000C9E7129B9BB10AF09BFD129B3C4A03F131
:100D6000200153F8040B8B4242F8040BF9D1109A7E
:100D7000384B116819609188998092799A71139B08
:100D80007BB101200AF08AFD139B334A03F1100165
:100D900053F8040B8B4242F8040BF9D101222F4B7C
:100DA0001A70FFF75DFD30238DF80F304FF481731B
:100DB000ADF828300DF10F030B9320238DF8303060
:100DC000274B00250D93274B01260E93264B274CCE
:100DD000079301AB099302238DF84830244B294631
:100DE0001393244B18221493201D05AB15930F94D5
:100DF0008DF814608DF81860ADF82050ADF84060A3
:100E000011951DF0BFFD1C4B23600733A3601B4BE6
:100E1000E36004F08DFF03AB636004AB2361042344
:100E2000A0618DF80830324602AB0AA910A88DF8EF
:100E30000C50ADF8105063610FF0FEFD38E700BFB5
:100E4000F1FD010023FE01003CFE01006FFE0100E8
:100E50003D2B0020362B00205D2B00203523002069
:100E6000003A0200F3D001006E160200DC140020EC
:100E7000F43902008DD201007E2B00206D2B002062
:100E800070B5494818F01BF90EF074FA20B14748C4
:100E900018F015F9002070BD45480EF09BFA014688
:100EA00010B1444818F00BF9434806F0DDFF08B1D3
:100EB0004248EDE7424806F0F1FF08B14148E7E754
:100EC00004F0B4FE014618B13F4818F0F8F8E1E725
:100ED0003E4818F0F4F819F059F8FFF7FFFB044604
:100EE0000028D7D13A493B4814F0AAF93A481DF0F6
:100EF00068FC22460121384B384816F00FF9384972
:100F00004FF4806237480FF0B3FA374C014618B3FC
:100F1000364818F0D4F8344D354E4FF0FF334FF0CB
:100F2000FF320321284616F023F90FF0A7FB636B6D
:100F300003F4FE13B3F5804FEFD1FFF7CFFB01466B
:100F400010B1304618F0BBF8A06B1DF03FFC636B8E
:100F50006FF394336363E0E702212046254A0FF0E4
:100F6000A3FA014608B12448D3E7244816F000FD4F
:100F700018B1234818F0A3F8CDE7224902200FF05A
:100F8000FFFA014610B1204818F099F81F480FF0F9
:100F90008DFD014608B11E48BBE716F023FD08B1E0
:100FA0001C48E7E71C48E5E78BFE0100BDFE010099
:100FB0002D080000D0FE010098010020EDFE010088
:100FC000880100201AFF01004CFF01006CFF0100A6
:100FD0008D0A000044150020341500202015002043
:100FE0003623002036270020F814002083FF01005C
:100FF00070000200C9740100A9FF01008908000007
:10100000D3FF010025070000F2FF0100700100205E
:101010001F0002003F0002005800020010B5094CFA
:101020000A44914200D110BD11F8013B5840030918
:10103000E35C0001C0B243401809205C1B01DBB235
:101040005840EEE7A5000200014B1B68184700BF9F
:10105000B4010020014B1860704700BFB4010020AC
:1010600030B585B004460D461022002168461DF0BB
:1010700089FC02238DF80230044B2A46214668463B
:10108000019317F03BFD05B030BD00BF49100000D3
:1010900080B505460E461746984615F003FC0346F4
:1010A0001DF080FC0446DFF81890424649F80030F5
:1010B00039463046A84754F8090002F035FC00BF15
:1010C0000800000070B589B306680122304618F0A8
:1010D0003BF801460446304617F0FEFFC30708D42C
:1010E0001349AF22134818F0B6FAAF21104818F090
:1010F000ABFA2146304618F005F82518294600229B
:10110000304617F0E9FF2D1AAC4206D00849B72245
:10111000084818F0A0FAB721E8E72146304617F052
:10112000F7FF2146BDE8704018F033B970BD00BF2D
:10113000C6000200E70002002DE9F8430F460668EA
:101140001446B2684B1EB2F5004F34BF042108218B
:101150003B4010D0C7F1000909EA0709494503F1EE
:10116000FF3028BF494618420CD11F46BCB90025A4
:101170002846BDE8F8838F420FD82146BDE8F843E2
:1011800018F049B92C492D484FF4A27218F063FAAF
:101190004FF4A271284818F057FA9946E6E7B2EBE7
:1011A000D40FE4D9E319591A104617F0D7FF0146B6
:1011B000304618F02DF880460028D8D0B36809EBE7
:1011C000C005B3F5004F34BF042308231D44354444
:1011D0007B1E1D44B5FBF7F57D43A5EB09052946AC
:1011E000304617F0B1FF2C44073424F00704A41B49
:1011F000804507464FEAE40408D20246414630469D
:1012000018F040F84146304618F081F8394630462B
:1012100017F078FF3844844208D2394630462246D7
:1012200018F030F82146304618F071F8012239469E
:10123000304617F06DFF9BE7C6000200E700020092
:10124000B2F5802F2DE9F0410CD2042A20D83D4977
:101250004FF4F9723C4818F0FEF94FF4F97139482F
:1012600018F0F2F90823D21ACC1D114424F0070417
:1012700021F00701091B17294FEAD1060AD8314985
:1012800040F2FB12304818F0E6F940F2FB11E6E7B5
:101290000423E8E70027046031463046A660E76093
:1012A00017F065FF0121421D8046304617F056FFBA
:1012B0009200D51DED082844B0423AD8B8F1FF3F5E
:1012C0003946A2F1100204F11000B8BF3A461DF0F1
:1012D00059FB2A463946204617F032FF3B463A462C
:1012E0003946204617F003FFA6EB0508204639468D
:1012F000012217F00DFF4246294617F021FF2B4629
:101300003A462946204617F0F2FE3146204617F0AD
:1013100017FF43463A463146204617F0E8FE31466D
:101320002046012217F0F4FE2946BDE8F04117F0EF
:10133000EEBF04494FF40372034818F08CF94FF4E0
:1013400003718CE7C6000200E70002002DE9F84FA8
:101350000446A38B08461907164612D4022803F048
:10136000070162D1204618F0A3F888B1013804289B
:1013700000F22581DFE810F0590023017E00C8004B
:10138000F50001280CBF43F0100143F02001A183B8
:1013900004F1140013F03EF9002800F0AB8086F34E
:1013A0001188BFF36F8FBDE8F88F03F00702501F5D
:1013B00001281ED80020062A2768C4E9000014D19D
:1013C0003A4603E0E08B0130E0831268002AF9D14D
:1013D00023F0070343F002022046A28318F068F8C6
:1013E00090B342F02002A2832EE023F007039AB2CA
:1013F000F2E7042A33D123F007039AB22046A283EE
:1014000018F056F810B142F02002A283A38B03F02B
:101410000709894540F0DC80A18BCA0640F1228192
:1014200021F01003A38301F00701D4F81880A38BE7
:10143000B8F1000FB9DA0022276823F00703C4E9E6
:10144000002243F00103A383A38B03F0070989451E
:1014500040F0BF80002FDFD00025AA4640E086493B
:1014600040F21B12854818F0F6F840F21B11824832
:1014700018F0EAF841B180494FF4AB727F4818F098
:10148000EAF84FF4AB71F2E7236843B97A4940F2C6
:1014900057127A4818F0DFF840F25711E7E723694E
:1014A0001D6845B974494FF4AD72744818F0D3F80B
:1014B0004FF4AD71DBE70F4688464FF00609A38B6A
:1014C00023F0070343F006039BB2A383A268002A1C
:1014D00040F08180002F40F08180002D9CD0BA46E2
:1014E00043F0080304F1140B5846A38313F092F859
:1014F000002875D1624940F23112604818F0ABF80B
:1015000040F231115E48B3E7022908D05A4940F24F
:101510005D125A4818F09FF840F25D11A7E7E78B7B
:1015200047B155494FF4AF72544818F094F84FF44E
:10153000AF719CE723695D6845B94F4940F261127C
:101540004E4818F088F840F2611190E7A38BB84636
:1015500023F0070343F004039BB24FF00409A38375
:10156000B4E7012908D044494FF4B272434818F057
:1015700072F84FF4B2717AE7236843B93E4940F2FA
:1015800065123E4818F067F840F265116FE723696D
:101590009D6845B938494FF4B472384818F05BF883
:1015A0004FF4B47163E70027A38BB84623F0070319
:1015B00043F005039BB24FF00509A38386E72E494C
:1015C00040F26B122D4818F046F840F26B114EE7CE
:1015D000002700257AE74FF0010A81E792467FE76E
:1015E00086F31188BFF36F8FBAF1000F17D14FBB8D
:1015F00015B120462349A8474FF04003EFF3118669
:1016000083F31288BFF36F8F584612F0F5FF08BBC3
:101610001B498822194818F01EF8882172E7A16832
:101620000029E4D00E680029E1D043464A4620460E
:10163000D1F804A0D0471EB1336831461E46F2E708
:101640003346FAE7394643464A4620463F6817F094
:101650005BFFCCE7584612F0EBFFA38B23F00803A7
:10166000A383D9E68B067FF593AE21F02003A383F5
:1016700001F0070176E600BFFF000200E70002006C
:101680002101020089160000F8B504460D4600F15C
:1016900014064FF04003EFF3118783F31288BFF372
:1016A0006F8F304612F0A8FF40B90A490A488822D5
:1016B00017F0D1FF8821074817F0C6FF304612F017
:1016C000B7FFA5613A462046BDE8F8400121FFF783
:1016D0003DBE00BF21010200E70002002DE9F047F6
:1016E00004460F4617F000FF051E5EDB04F11409E7
:1016F0004FF04003EFF3118A83F31288BFF36F8F2B
:10170000484612F079FF804638B933498822334879
:1017100017F0A1FF882130483CE0484612F088FFCE
:101720004FF6FF72E38BA68B934206F007063FD07D
:10173000022E10D135460133E383484612F06AFF8A
:1017400000283BD1244940F23112244817F083FF8E
:1017500040F23111DFE7062E13D8DFE806F0092C3E
:101760001212090409006FF085054FF00008E4E744
:1017700000233B6063687BB9C4E900777EB13546DE
:10178000F3E7174915484FF4E47217F064FF4FF47C
:10179000E471134817F058FF1F606760EEE7524688
:1017A00002212046FFF7D2FD35462846BDE8F087E6
:1017B0006FF00A05D9E76FF00405D6E78AF31188C0
:1017C000BFF36F8FB8F1000FEFD0002332463946D8
:1017D000204617F099FEE8E721010200E700020029
:1017E000FF000200F8B5054600F114064FF0400373
:1017F000EFF3118783F31288BFF36F8F304612F037
:10180000FBFE38B920498822204817F024FF8821A0
:101810001D4825E0304612F00BFFAC8B04F00704A6
:10182000022C12D0012C0CBF6FF004046FF0850461
:10183000304612F0EFFE08BB134940F23112134854
:1018400017F009FF40F23111E2E7EB8B53B9104971
:101850000E4840F2EF1217F0FEFE40F2EF110C4876
:1018600017F0F2FE013B9BB2EB83002BE0D13A462E
:1018700021462846FFF76AFD2046F8BD87F3118808
:10188000BFF36F8FF8E700BF21010200E7000200FD
:10189000FF0002002DE9F0410E460546002846D023
:1018A000002944D000F114074FF04003EFF31188F2
:1018B00083F31288BFF36F8F384612F09DFE38B95C
:1018C0001C4988221C4817F0C6FE8821194816E0DA
:1018D000384612F0ADFE31462846AC8B17F0CDFDF0
:1018E00078B104F00704231F022B0CD913491248C6
:1018F00040F22D2217F0AFFE40F22D210F4817F0D5
:10190000A3FE6FF07704384612F084FE40B909490F
:1019100040F23112084817F09EFE40F23111D5E72F
:1019200088F31188BFF36F8F2046BDE8F0816FF018
:101930001504F9E721010200E7000200FF000200A0
:1019400008B54268034602F00302022A81600AD009
:10195000032A4FF0000103D0012A0AD1596006E0A2
:101960001868596008BD186800225A6050B90020F4
:10197000F8E706490648452217F06DFE4521034861
:1019800017F062FE15F0E8FCF1E700BF4E0102001F
:10199000E70002002DE9F34180460E461546002778
:1019A0002A4601A9404617F0ECFD0446024631469E
:1019B00001981CF0C0FF2D1B2744264401D0002CA9
:1019C000EED13946404617F0F9FD40B106490748C7
:1019D000492217F040FE4921034817F035FE3846EA
:1019E00002B0BDE8F08100BF71010200E700020013
:1019F0002DE9F34180460D46164600273246404603
:101A000001A917F0F0FD04462DB1024601992846C0
:101A10001CF091FF2544361B274401D0002CEDD14A
:101A20003946404617F0FBFD40B1064906488E2274
:101A300017F011FE8E21034817F006FE384602B05B
:101A4000BDE8F08171010200E7000200044608B51C
:101A50004FF04002EFF3118382F31288BFF36F8FD0
:101A60000DF0CCF9204601F015FF034817F027FBD5
:101A700002F07CF8FCE700BF990102002DE9F74372
:101A80000F4606460821C06A17F080FE80463C6873
:101A9000DFF84890241A3C6004EA0905AC4203D8F8
:101AA000002003B0BDE8F08308236A462146304693
:101AB00017F0DFFD0028F4D16946304617F070FEBC
:101AC00040B1BDF80230BDF8042005EA0905134411
:101AD0001D443C60A4EB0804E0E700BF0000FFFFEA
:101AE0002DE9F047044688B000F1140738461CF091
:101AF000C0FCA06A8368DB689847E06248B945216A
:101B0000AB4818F0F9F96FF01505284608B0BDE8A4
:101B1000F087A06A8368DB6898470368013B1F2B46
:101B200002D94521A348ECE7A06A216805AA1BF069
:101B30001CF910B14521A048E3E7A5892DB1069B0A
:101B4000B5FBF3F203FB125515B145219B48D8E7CD
:101B5000E389012B02D845219948D2E7E36A009531
:101B600093F804904FF0FF334FF0FF32384612F0F5
:101B70006BFF0821E06A17F009FEA8460646E389D4
:101B80001FFA85FA534508D8E389434523D13846DF
:101B900012F0E8FE6FF02C05B7E7A1892B04891B32
:101BA00013FA81F14A4608232046009117F0AFFD51
:101BB00078B16946204617F06AFD08F1010808234C
:101BC0004A46204600991FFA88F817F0A0FD002821
:101BD000DAD00135D3E753450BD1009908234A46A3
:101BE0002046891B17F093FD18B96946204617F067
:101BF0004EFD69462046FFF741FF054618B13846BD
:101C000012F0B0FE81E7009B4FEA13484FEA084804
:101C10006360C4F80880D4E9011399420FD3082304
:101C2000204601AA17F025FD05460028E7D101ABA3
:101C300013F8012B91453CD10135082DF8D163688B
:101C400069461B0C1B042046009317F020FD4A46F2
:101C50002046A389009917F05AFD051ECFDB636863
:101C600069D04FF6FF7906EB0308A3891FFA88F2C3
:101C70009B1B9A42CDF8008037D34921514818F078
:101C80003BF92046616817F067FD05460028B6D18C
:101C900063684D4AA18913400B44A3EB460363607C
:101CA00013402046A36017F05FFE0546002D5ED06E
:101CB000A5E7204601A917F073FD626810B9921BD1
:101CC0006260A8E7BDF80850BDF80610E06AC4F8E5
:101CD0000880294417F05AFD40449042A060EED19C
:101CE000002DECD06FF01C057AE008234146204619
:101CF00003AA17F0BEFC0546002880D1204603A9A0
:101D000017F04EFD38B1BDF80C304B4503D1BDF88E
:101D10001030002B6AD0B044A7E74A4620465B1A31
:101D200017F0F5FC051EFFF66AAF08D0E26AA3685B
:101D300012681344A360D4E901318B42EDD8616885
:101D4000A38901EB46029A42B0D1DFF87C80A268F9
:101D500001EA08039A42A9D0204617F0FDFC054687
:101D600000287FF44CAF636803EA0803A360A389EB
:101D7000A288A3EB46039A422ED0384612F0F2FD19
:101D800001234921E28911482374A38918F0B4F88A
:101D90006268492193B20E48120C18F0ADF8A2689F
:101DA000492193B20B48120C18F0A6F80025ACE6B6
:101DB000DB010200020202002402020041020200D2
:101DC0005A020200CB0202000000FFFF8202020062
:101DD0009E020200B5020200204617F0AEFD054645
:101DE000384612F0BFFD002DCAD08EE649210848C2
:101DF00018F082F8636869461B0C20461B040093A8
:101E000017F045FC2046009917F0A6FC4DE700BFEF
:101E1000F70202002DE9F04F1D46037C0446894677
:101E2000904689B04BB94521634818F065F86FF0CA
:101E30000C06304609B0BDE8F08FC26A0821104692
:101E400017F0A4FC82462946104617F09FFCA38990
:101E50000746A3EB8A039D4200F2AB801DB1B8F1A7
:101E6000000F00F0A68063680393204604AA03A92C
:101E7000DDF80CB017F0CCFC06460028D9D1BDF82F
:101E800010304B4505D06268039B9A42EDD1E5B90D
:101E9000CFE7204604A917F083FC0028F3D0BDF853
:101EA0001200BDF8143075B19D420ED14FEA1B41AE
:101EB000090401442B464246204617F0F5FB002852
:101EC00003DC0646B5E7002BB3D0002F3ED104F16A
:101ED000140301934FF0FF324FF0FF3304F114006D
:101EE00012F0B2FDDFF8D4B0E3899E425ED0D4E9AF
:101EF0000123F9188A422CD3ADF81A30FF2306A823
:101F00008DF81E30ADF81890ADF81C5017F0F6FBA8
:101F10002B464246A168204617F0C4FC294682465B
:101F2000E06A17F033FCA2680244A260BAF1000F25
:101F300007D1204606A917F0EFFC002814BF8246FF
:101F4000AA46019812F00EFD564672E75744BFB2FA
:101F5000BDE70821E06A17F019FC4FF6FF73002176
:101F6000ADF818308DF81E30A389ADF81C1011188B
:101F700002EA0B021A44101A606006A8ADF81A10A3
:101F800017F0BCFB06A9204617F0C6FC2046211D11
:101F900017F07DFB6368204603EA0B03A36017F08C
:101FA000E3FC82460028CCD101369DE76FF01B0A86
:101FB000C7E76FF015063CE7C20102000000FFFF13
:101FC0002DE9FF471E46037C04460F469046BDF8A8
:101FD000309043B92C48452117F08EFF6FF00C006C
:101FE00004B0BDE8F0870821C06A17F0CFFBA389D1
:101FF000A3EB40039E4243D80025D4F804A0CDF8BB
:1020000004A0A9455146DDF804A009D263685345F0
:102010001ED1BDF80830BB421AD06FF00100DFE7D7
:10202000204602AA01A917F0F3FB0028D8D1BDF879
:102030000830BB4206D1204602A917F0B1FB08B117
:102040000135ADB26268019B9A42DAD15146E0E7B0
:10205000BDF80C30002BE0D0A945DED8BDF80A0051
:10206000090CB3424FEA014128BF334601444246BE
:10207000204617F0FEFA0028B2D1BDF80C00AFE7F9
:102080006FF01500ACE700BFC201020010B530B917
:102090000B48452117F030FF6FF0150010BD836825
:1020A00033B90848452117F027FF6FF00400F5E722
:1020B0001B6813B1BDE8104018471846EEE700BF93
:1020C000180302002E03020010B530B90B48452159
:1020D00017F012FF6FF0150010BD836833B9084880
:1020E000452117F009FF6FF00400F5E75B6813B1B5
:1020F000BDE8104018471846EEE700BF180302007D
:102100002E03020070B508B101B132B90B48452168
:1021100017F0F2FE6FF0150070BD84680CB1E56831
:1021200035B90748452117F0E7FE6FF00400F3E7E3
:1021300041F8040BE368BDE8704018475103020002
:102140002E03020010B5044630B91048452117F09F
:10215000D3FE6FF0150010BD006830B90C48452162
:1021600017F0CAFE6FF00100F5E783680BB11B6939
:1021700033B90848452117F0BFFE6FF00400EAE7C5
:10218000616898470028E6D12060E4E782030200F6
:10219000980302002E03020070B51346044630B9BE
:1021A0001048452117F0A8FE6FF0150070BD0068BB
:1021B00030B90D48452117F09FFE6FF00100F5E79B
:1021C00082680AB1956835B90848452117F094FE30
:1021D0006FF00400EAE70A46AC466168BDE870406B
:1021E000604700BF82030200980302002E03020032
:1021F000034A13680BB9526813600020704700BF90
:10220000B801002030B50C460E4985B00291D0F8D7
:10221000AC110546CDE9003100F1E0014FF0FF338C
:10222000204611F0AFFA50B9012384F86430D5F894
:10223000A83123B1204605B0BDE83040184705B0AD
:1022400030BD00BF099C010038B50C46114605465B
:1022500017F0DCFC034638B92846044917F0D6FCD1
:1022600003460020236038BD0120FBE78C300200CC
:102270002DE9F04F012381460569466885B005F5D3
:102280005977D7E8EF2F002A03D1C7E8E13F0029AB
:10229000F7D10CBF1A46002240F0B180B368B16A92
:1022A00005F5E4781C1F104617F035FD84425FD811
:1022B000013A00F09E80B2FA82F24FF00044D4401E
:1022C00072682046073222F00302C5F86022B16A24
:1022D00017F021FDC5F86402B36A40466343033337
:1022E00023F0030302EB4302230103EB440309330E
:1022F00023F0030303EBC403C5F858221A44083241
:10230000C5F854227368C5F85C42C5F850323D4B9D
:10231000C5E9A963316800F0DFF9044630BBD9F89C
:1023200004A0D9F81090DAE9073409F5307B012BC5
:10233000584608BF103C13F0F5F80023DAF82400E3
:1023400031494FF4806201EB8021009358462346C7
:1023500013F0FEF809F52C702C4912F071FFDAF831
:10236000140083685C682CB96FF05704002139E0D1
:10237000013298E74B46264ADAF81810A04704467F
:102380000028F3D1DAF8140083681B69002BEBD026
:102390000122DAF81810984704460028E6D11D4BB0
:1023A0002846C5F8A8311C4BC5F8AC311B4B03932C
:1023B000D5F810320293D5F80832CDE90083D5F86C
:1023C0006832B26AD5F8601300F04EF9044600286E
:1023D000CCD105F1E00011F06FFB0028C5F86803CF
:1023E0000ADB0221384617F046FC204605B0BDE85E
:1023F000F08F6FF00B04B9E76FF01504B6E76FF0DC
:102400007704F2E75F9C0100C02D0020459C01008D
:10241000399C010021240000ED9D0100A79C0100D2
:1024200013B5044640B100230122CDE90032074B29
:10243000D0E9091211F05AF9A36E1B6823B1E06EBE
:1024400002B0BDE81040184702B010BD8C30020049
:1024500013B504460846216901F55971D1E8AF1F4B
:10246000022910D193B1A0B10121CDE90031134669
:10247000D0E9091211F03AF9074B984208BF6FF002
:102480000B0002B010BD6FF00F00FAE76FF04C00C8
:10249000F7E76FF00100F4E72EF8FFFF2DE9F743AF
:1024A00088461546066906F55973D3E8AF3F022BF7
:1024B0005FD1136823B96FF0150003B0BDE8F08356
:1024C0001B78002BF7D0D6F86093B9F1000F33D109
:1024D00006F5D8774FF0FF324FF0FF33384612F051
:1024E000B3FA30462A6801A9FFF7AEFE019C1CB979
:1024F000384617F0BEFBDEE705F10803A3666B69FB
:1025000084F86490E366E46360B1384617F0B1FB89
:1025100021463046236E2A68FFF774FE0020C8F873
:102520000040CAE72022296804F140001CF091F91C
:10253000384617F09EFBF1E730460F4917F066FB6F
:1025400004460028B7D005F1080383666B69C063B1
:10255000C366002380F864302022296840301CF0D4
:1025600078F922460121304600F060F80028D5D0E5
:10257000A1E76FF00F00A0E78C30020010B50C4609
:10258000006900F55973D3E8AF3F022B0FD189B131
:102590000A4900F52C7012F053FF20461BF085FD10
:1025A0007022002120461CF0EDF9002010BD6FF0D4
:1025B0000F00FBE76FF00100F8E700BF54150020A3
:1025C0002DE9F04F05460E4690460027D0F8B0A002
:1025D00085B0AAF5AE7421463046FDF7BDFDE0B9E1
:1025E000114BA4F1400B0293DAF810303246CDE9DA
:1025F000008329464FF0FF335846AAF5CE7911F0F3
:10260000C1F860B97023012203FB079383F86420AB
:10261000DAF80C300BB158469847703417B105B052
:10262000BDE8F08F0127D6E71B9E01001FB51446B9
:1026300090B18AB1012912D10A4B00F1E001029355
:10264000D0F8AC31403201934FF0FF332046009375
:1026500011F098F804B010BD6FF01500FAE70020F3
:10266000F8E700BF1B9E01002DE9F04387B00E463E
:10267000DDE90E811446DDE910251F4630B329B38C
:10268000DFF850C000F1E009002D08BF65469EB993
:10269000CDE9034400F5CE74204605961BF07FFE7D
:1026A00003ABCDE900432A463B464146484611F07C
:1026B00029FA07B0BDE8F083002241460E92484651
:1026C0002A4607B0BDE8F04311F048BB6FF0150093
:1026D000EFE700BFC1250000F0B50E46044689B003
:1026E00000286FD001230246C3630023D0F898105E
:1026F000364F403040F80C7C42F8301FCDE90133B2
:102700004FF0FF330093C36D1BF0B4F9304A06ABB2
:1027100092E8030083E80300184610F0F9FE05462E
:10272000D8B904F1340010F0D5FE0546A8B93946F1
:10273000284805AA1BF080F9054670B9059B9A68E0
:1027400072B10C33D4F89400C4F8A03017F096FBA3
:10275000C4F8D40030B96FF00B05284609B0F0BDBD
:102760000346EFE7D4F8940017F088FBC4F8D800CC
:102770000028F0D0D4F88C30D4F8A010C4F8A830D9
:102780000423C4F8AC30C4F8C4300223A362124B53
:10279000B4F89420D4F8D470C4F8B810C4F8D010A9
:1027A000D4F89010236204F1A403A4F8B020C4F874
:1027B000A470C4F8C010A4F8C820C4F8BC00A66176
:1027C000E362CAE76FF01505C7E700BFC703020061
:1027D00064EF0100D1030200A4F001002DE9F84FDD
:1027E00080460F4616461446DFF88C90BD192D1B07
:1027F0000CB9BDE8F88F08F1FF33032B8CBF3F21E4
:1028000019F803101D4816F05AFC4FF0000BDFF8C2
:1028100070A05C4528D9504615F80B1016F04FFCF7
:102820000BF1010BBBF1080FF3D1164816F047FC72
:102830004FF0000ADFF850B0544519D915F80A10C6
:102840005846A1F120025F2A28BF2E2116F037FC3E
:102850000AF1010ABAF1080FEED10C4816F02FFC6C
:10286000072CC6D9083CC1E7094816F028FCD7E771
:10287000084816F024FCEBE7E9030200D903020044
:10288000DE030200E4030200E60302008B300200D4
:10289000D9450200DB450200014B03600020704770
:1028A000D0F0010070B5114B0D461C68DCB1104B27
:1028B000196800238B4202DB6FF0010070BD2246D5
:1028C00012F8106B864202D014460133F2E7E0683A
:1028D00010B96FF01200F1E71BF07AFD0028F8D074
:1028E00000202C60EAE76FF00C00E7E71002002000
:1028F0005CF1010070B588B005460C46C0B269466F
:102900001646FFF7CFFF00281BDB0098C8B14368CD
:102910002268029383680195CDE903360023CDE94F
:1029200006230593C56817F0F4FA6DB128460849E7
:1029300001AA1AF01EFA079808B9059B236008B08F
:1029400070BD6FF01500FAE76FF01200F7E700BFF7
:10295000159F01001FB507240294044C0194BDF893
:102960001840009419F094FB04B010BD0D0600202F
:102970002DE9F0410F4B05461C680E461746ACB1D9
:102980004FF0FF324FF0FF330B4812F05DF86368F1
:102990003246D3F8088029463B462046C0470446C5
:1029A000054811F0DFFF2046BDE8F0816FF001041B
:1029B000F9E700BF7C150020E0060020002303603B
:1029C000044B5A6812B9C3E90000704710605860A0
:1029D000704700BF80150020014B1860704700BF92
:1029E0007C150020002330B585B00546CDE90233C3
:1029F00001904FF0FF334FF0FF320B4812F024F8F4
:102A00000A4B1C684CB9284600F0DCF8044606481E
:102A100011F0A8FF204605B030BD636820461B6852
:102A200001A998472468EDE7E00600208015002002
:102A30001FB5CDE9010103924FF0FF334FF0FF3294
:102A4000094812F001F8094B1C682CB9064811F02E
:102A500089FF204604B010BD636820461B6801A9A9
:102A600098472468F1E700BFE006002080150020A9
:102A70000022024BC3E90022704700BF80150020EE
:102A80000022024BC3E90022FFF7F2BF88150020A5
:102A90002DE9F74307460C4609B100230B600026D9
:102AA000234DDFF890904D4520D9234923489422A7
:102AB00016F0D1FD9421204816F0C6FDD5F800800F
:102AC0003846414601AA17F068FA50B116B954B910
:102AD0002E4606E000224046316817F05EFA0028D4
:102AE000F5D11435DFE7019B2360F1E7E6D3144B02
:102AF0001D68C5B155F8148C3846414601AA143DED
:102B000017F04BFA50B116B954B92E4606E0002220
:102B10004046316817F041FA0028F5D16D69E8E7C1
:102B2000019B2360F1E7304603B0BDE8F08300BFAE
:102B3000D0EE010048EF01001C040200E700020093
:102B4000881500202DE9F341DDF8208004460D466C
:102B500016461F460190B8F1000F07D0D8F80010B4
:102B6000C1B9D8F804E0BEF1000F1CD1204601A97C
:102B7000FFF78EFF98B13B46D0F8088032462946D1
:102B80000198C047034650B1224645210C4817F032
:102B9000B3F904E001AA17F000FA0028E1D10020FF
:102BA00002B0BDE8F081D8F80830324608932946D3
:102BB0003B46F446019802B0BDE8F041604700BFD3
:102BC0004E040200F8B5064600251C4C1C4FBC42C2
:102BD0001BD91C491C48F42216F03DFDF42119486C
:102BE00016F032FD2EB9E3685BB928460546143469
:102BF000EDE700223146206817F0CFF90028F2D126
:102C0000F3E79847002DF0D1F0E7EBD30F4B1C68AA
:102C100094B1143C1EB9E3684BB96469F8E700222B
:102C20003146206817F0B9F90028F4D1F5E7984744
:102C3000002D08BF0546F0E72846F8BDD0EE01009C
:102C400048EF01001C040200E70002008815002084
:102C500038B50C4D4FF0FF334FF0FF320A4811F0FA
:102C6000F3FE2B783BB9FFF70BFF00F06DF804463D
:102C700010B901232B700024034811F073FE204685
:102C800038BD00BFA52B0020E00600202DE9F0474D
:102C900006468946048FDFF8ACA0013498B0A4B290
:102CA00000F10807651EADB2B5F5004F47D04A23C5
:102CB000294605AA384616F028FF04F57F543F340C
:102CC000A4B280462146012338460DF10B0216F0CE
:102CD0001CFFB8F1000F014610DC002810DC338F18
:102CE000AB4209D132466B1E22F8383F4FF4004107
:102CF00002233846FFF78EF82C46D3E7002808DC7D
:102D00002946384616F0FDFE2146384616F0F9FEF3
:102D1000E5E708F160030DEB03080023524608F8CD
:102D20004C3C05A8CDF8009003AB0397ADF81040DC
:102D3000FFF708FF0028DFD018B0BDE8F0870020BB
:102D4000FAE700BF0BA001007FB5012569462846C0
:102D50000195FFF7A7FD044660BB284602AA01A91A
:102D6000FFF7C8FD044610B110F10C0F22D10399F2
:102D7000B1F5803F23D200231846009A9468084496
:102D800084421AD30133082BF9D10E4DA982EB826C
:102D900053682846AB60D368EB6317F0CEF904465E
:102DA00040B9094E28466E60FFF708FE28466E605F
:102DB000FFF712FE204604B070BD9BB2E5E76FF04E
:102DC0002004F7E790150020FC0100200449431E71
:102DD0000F3013F8012F8A5C83421A70F9D17047C3
:102DE00078040200F0B50746264E8DB001AD0C46C2
:102DF0000FCE0FC50FCE0FC596E8070085E8070078
:102E00003846002F39D0002C39D0381F02462146D1
:102E100010344B780D781B0443EA0563CD780431F8
:102E20002B4311F8025C8C4243EA052342F8043F2D
:102E3000EFD10421144C8A07036916D1C3F307426A
:102E4000A55C1A0EA25C42EA0562C3F30725655D24
:102E5000DBB2E35C42EA054242EA032221F00303CB
:102E600030336B4453F82C3C534050F8042F01315D
:102E700053402C290361DED101200DB0F0BD204666
:102E8000FBE700BF6CEF0100780402002DE9F04F72
:102E9000002703689DB002934368DFF8BCA1039349
:102EA0008368DDE902460493C36805930369DDE99D
:102EB00004BE0693436907938369DDE9062C0893F2
:102EC000C36998460993089B0093CD590CAB2DBA62
:102ED0005AF8049BDD514FEAF223A94483EAB21366
:102EE000009D83EA72634B4425EA020502EA0C095D
:102EF00085EA09052B44434486EA0B054FEA7438FA
:102F000088EAB408254006EA0B0985EA090588EA3B
:102F1000B4580437A844402F03EB0E054344DE4663
:102F2000DDF8008040F088804FF0100A4B490A918C
:102F300051460AF1010A0DF1700E0AF00F070EEB6F
:102F4000870757F8407C01F00F094FEAB74801970F
:102F500088EAF71801F10E0707F00F070EEB870755
:102F600057F8407C09314FEAF74E8EEA774ECDF89C
:102F70002CE001F00F010DF1700E0EEB81010EEB54
:102F8000890959F840EC51F8401CBAF1400F7144DE
:102F9000DDF804E088EADE08DDF82CE041448EEA42
:102FA000972E714405EA02084FEAF52E2CEA050730
:102FB00087EA08078EEAB51EDDF828808EEA756E6E
:102FC000774458F804EF49F8401C77440F440099BF
:102FD0004FEA733E394484EA0607CDF828808EEA2A
:102FE000B30E07EA030704EA06088EEAB35E87EA2F
:102FF000080777440F4401EB0B0ECDF800C0B34631
:1030000022D102993944016003991944049B41601B
:1030100023448360059B3344C360069B7344036170
:10302000079B2B444361089B13448361099B6344C2
:10303000C3611DB0BDE8F08FB346CDF800C0264691
:1030400094461C462A4640E7944626462A461C4695
:1030500075463B466CE700BF90F10100CCF10100E2
:1030600010B50446C8B17022002117F0AAF80B4B26
:103070000B4A0C49C4E900230B4B0C48C4E902136A
:103080000B4BC4E9040301200A4BA36103F1745301
:10309000A3F52303A3F69243E36110BD85AE67BB9E
:1030A00067E6096A72F36E3C3AF54FA57F520E51FE
:1030B0008C68059BABD9831F00F1744000F5A60016
:1030C0000B289ABF024B18566FF00D00704700BFD7
:1030D00078050200014815F03DBB00BF90F20100E9
:1030E00038B5044618B90F4B0F485B6898476168BC
:1030F000B1F5683F10D0B1F5680F0DD00B4DA94266
:103100000AD011F46861206807D00146084811F020
:103110000BF900232360656038BD14221BF032FCDC
:10312000F9E700BF24050020840502002C5F5CA99C
:10313000D01A002008B560B34368B3F5683F0ED0DD
:10314000B3F5680F18D0144A934220D000684FF0AE
:10315000FF324FF0FF3311F077FC58B115E0012238
:103160000368D3E8EF1F002903D1C3E8E02F00284C
:10317000F7D10AD1002008BD0368084A1B7803F57F
:10318000807352F82330002BF4D00548F3E705484C
:10319000F1E76FF4E040EEE72C5F5CA9000003501C
:1031A000E98FFFFFEA8FFFFF08B520B34368B3F54F
:1031B000683F09D0B3F5680F13D0114A93421DD070
:1031C000006811F0CFFB14E000220368D3E8EF1F82
:1031D000012903D1C3E8E02F0028F7D109D009481D
:1031E00008BD00210368084A1B7803F5807342F884
:1031F00023100020F4E76FF4E040F1E70348EFE725
:103200002C5F5CA9E98FFFFF00000350EA8FFFFFEE
:1032100010B5044618B91D4B1D485B689847636894
:10322000B3F5683F2FD0B3F5680F2CD0194A9342FD
:1032300019D1236803BB4FF0FF324FF0FF33214613
:10324000154811F017F808B923681BB90F4B13483C
:103250005B6898471422002120681BF093FB4FF411
:103260006863636008E0B3F5683F0DD83A2B03D07C
:1032700040F6BA629342DED120681BF0FAF8636828
:1032800043F03A03636010BD054AF3E724050020CC
:10329000840502002C5F5CA9D01A0020AA05020058
:1032A0003A00003A08B506494023142205481BF0AD
:1032B000BCF8BDE808400449044815F0BDBA00BF99
:1032C000D0150020D01A002098F20100ACF20100C5
:1032D00037B505460C46C9B18B6810480093D1E953
:1032E0000023452116F008FE636945210093D4E9C7
:1032F00003230B4816F000FE4521E269094816F049
:10330000FBFD4521A269084816F0F6FD2146284636
:1033100003B0BDE8304010F051BD00BFD70502003A
:103320000B0602003F0602005306020030BFFFF703
:10333000FDBF00BF114B124A2DE9F041D518013DE8
:10334000B5FBF3F5DFF83C805D430F4B074608EB18
:103350000304013CB4FBF3F403FB04540E1B30469E
:103360000A491BF0E8FA701942460021083E1BF09A
:1033700009FB7E6704F10800BDE8F0810100000050
:1033800000000000080000000400000048EF0100F9
:10339000044B99685869884203D003494FF0805222
:1033A0000A6070471420002004ED00E010B5244CA2
:1033B0004521244816F0A0FDA36A99013ED5224874
:1033C000452116F099FD1E20A36ADA0104D51F4895
:1033D000452116F091FD1F20194CA36ADB0204D58C
:1033E0001B48452116F088FD0220A36A1C0304D562
:1033F0001848452116F080FD2120114CA36A59037D
:1034000004D51548452116F077FD2220A36A9A03BA
:1034100004D51248452116F06FFD2320084CA36AFD
:10342000DB0304D50E48452116F066FD2420A36A6F
:103430006FEA03436FEA1343A36210BD1D20C3E785
:1034400000ED00E086060200A3060200BB060200B3
:10345000DA060200090702002C07020056070200E4
:103460007507020070B5284C06460D4627484521D1
:1034700016F042FDA36AD9043BD52548452116F034
:103480003BFD1720A36A1A0504D52248452116F0F2
:1034900033FD18201C4CA36A9B0511D51E484521FD
:1034A00016F02AFDA26BA36A180408D545211B4813
:1034B00016F022FD1EB1A36A23F40043A362192073
:1034C000114CA36A590504D51548452116F014FD81
:1034D0001A20A36ADA050ED51248452116F00CFD14
:1034E0001B20094A936A43F47F43936200232B70A5
:1034F00070BD1620C6E7A36A9B04F2D50A48452191
:1035000016F0FAFC1C20ECE700ED00E0A507020035
:10351000C0070200D6070200EE0702000C080200F6
:1035200026080200460802006308020070B5324C0B
:1035300006460D463148452116F0DEFCA36AD90641
:1035400048D52F48452116F0D7FC1120A36A1A0749
:1035500004D52C48452116F0CFFC1220264CA36A36
:103560009B0711D54521284816F0C6FC626BA36A5B
:10357000190608D54521254816F0BEFC1EB1A36AE0
:1035800023F08003A36213201B4CA36ADA0704D53F
:103590001F48452116F0B0FC1420A36A9B0604D5F1
:1035A0001C48452116F0A8FC1520134B9A6AD60634
:1035B00002D49A6A94070FD59B6AD9060CD516498E
:1035C000164840F2631216F046F840F263111248B2
:1035D00016F03AF81020B9E7074B9A6A920642BFF4
:1035E0005A6A22F400525A629A6A42F0FF029A62C0
:1035F00000232B7070BD00BF00ED00E097080200B3
:10360000B2080200D6070200EA0802000709020019
:10361000220902006308020046090200E7000200D6
:10362000F0B56C4B0446586800258BB0C0F3080316
:1036300085F31188BFF36F8F02F07F46B6F17F4F9D
:1036400007D102F00C06082E0ED14521624816F073
:1036500053FC62494FF48B62614815F0FCFF4FF454
:103660008B615E4815F0F0FF16074CBF0C46012534
:10367000002CEED00026DA1E8DF80760092A00F231
:103680009880DFE802F0058B8F7696969696969353
:103690004521544816F030FC8DF807604D4EF36A12
:1036A0009A0705D54521504816F026FC002329E04D
:1036B000F36A002B02DA45214C48F5E7F36A5B0018
:1036C00063D545214A4816F017FC7369A26943F493
:1036D00080737361BFF34F8FBFF36F8F736932F8DD
:1036E000022C23F480737361BFF34F8FBFF36F8F8E
:1036F0004DF602739A4224D1452122683D4816F0C6
:10370000FBFB23689DF80720CAB902AE04F120072D
:10371000324620686168083403C2BC421646F7D1BD
:10372000099A002D51D0C2F3080121B96FEA522243
:103730006FEA42220992184602A9FFF7C9FD0BB0B1
:10374000F0BDB36ADBB233B101200DF10701FFF721
:10375000EDFE0346D6E7B36A13F47F4F05D0012090
:103760000DF10701FFF77EFEF3E7B36AB3F5803F83
:1037700002D3FFF71BFEECE7184940F22A32184843
:1037800015F069FF40F22A316BE7144940F22E32FE
:10379000134815F060FF40F22E3162E700200DF172
:1037A0000701D4E700200DF10701DBE745211248AE
:1037B0007AE7124910F4F87F114A124808BF0A4606
:1037C000103B452116F098FB70E722F4FF7222F0BF
:1037D0000102AFE700ED00E0A60902004609020081
:1037E000E7000200D6090200F2090200180A0200EE
:1037F0002B0A02004F0A0200700A02007809020038
:103800008D090200990A0200044B5A6942F0100225
:103810005A615A6942F480625A61704700ED00E0D3
:10382000EFF30880EFF3098101B57246FFF7F8FE68
:1038300001BD00BF002080F31488BFF36F8F00200C
:1038400080F30A8880F30B8800F02CFD00200E49DD
:103850000860BFF34F8F0D4880F3088800F03EF8F2
:10386000402080F311880A484FF40061401880F32B
:103870000988EFF314800221084380F31488BFF312
:103880006F8F00F01BF9000094ED00E0405900201C
:1038900000440020BFF34F8F0549064BCA6802F46D
:1038A000E0621343CB60BFF34F8F00BFFDE700BF63
:1038B00000ED00E00400FA05002318460649D1F89F
:1038C0009020C2F30722934200DB7047C1F8983082
:1038D000C1F8A0000133F6E700ED00E010B572B6C4
:1038E000002484F31388FFF7E7FF23464FF0FF30EF
:1038F0000C4A03F120010133102B42F82100F8D1CA
:1039000000234FF0FF30074A03F160010133102B11
:1039100042F82100F8D162B6BFF34F8FBFF36F8F2B
:1039200010BD00BF00E100E0084B9B6883420BD153
:10393000EFF3058343B1064B5A6842F080525A6058
:103940005A6A22F400425A6212F0B2BF14200020D8
:1039500000ED00E06FF00A01084A9368D967084952
:1039600098674B6843F080534B60002383F31188C2
:10397000BFF36F8F9368D86F704700BF142000208B
:1039800000ED00E016498A684FF030001044EFF374
:10399000098C80E8F01F402080F31288BFF36F8FFE
:1039A000104F4FF000664A698A603E604FF0740421
:1039B000141920680C4C2060906F0023936780F3EB
:1039C000118802F1300090E8F01F8CF3098802F1B1
:1039D000000004B517F04FF8BDE804407047000040
:1039E0001420002004ED00E0F01A00201EF0040F67
:1039F0000CBFEFF30880EFF30980816911F8021C16
:103A00000229FFD001B517F027F801BD40B2002808
:103A100007DB01234109034A00F01F00834042F8FD
:103A20002130704700E100E040B200280CDB0122A9
:103A30000649430900F01F008240203341F823204B
:103A4000BFF34F8FBFF36F8F704700BF00E100E0FF
:103A5000054B420953F82220012300F01F0003FA0E
:103A600000F01040704700BF00E100E008B5D30748
:103A70000BD40231072909D90D490E48582215F0F7
:103A8000EAFD58210A4815F0DFFD002140B2002868
:103A9000ACBF00F16040084B4FEA4111C9B2ABBF67
:103AA00000F5614000F00F0080F80013195408BDC4
:103AB000B10A0200E700020014ED00E00B4A08B56D
:103AC0000B4B22F07F029A60BFF34F8FBFF36F8FD3
:103AD000D3F8882022F47002C3F8882010F00AFA84
:103AE00012F09AFF00F078F810F04EFA0000000093
:103AF00000ED00E042F8203C009B0B4942F81C3CE2
:103B0000019B21F0010142F8183C029B42F8081C7D
:103B100042F8143C4FF0807342F8043C0023203AF2
:103B200002658367704700BF911000000A4B446F25
:103B300098600A4B1C60436E83F30B88104681F338
:103B40000988002163B681F31188BFF36F8F0022CB
:103B50000023FDF79DFA00BF14200020F01A00207A
:103B6000014910220A60704710ED00E072B6404033
:103B700080F31188BFF36F8F01B500F04FFB002871
:103B80000AD0BFF34F8F30BF00BF00BF00BF00BFE0
:103B900000BF00BF00BF00BFBDE8014062B6BFF379
:103BA0006F8F704772B6494081F3118801B500F0FC
:103BB00035FB00280AD0BFF34F8F20BF00BF00BFE6
:103BC00000BF00BF00BF00BF00BF00BFBDE8014095
:103BD00080F3118862B67047002340210348C21861
:103BE0000133452B82F80013F9D1704700E100E062
:103BF00001B5EFF30580A0F110004FEAC0000449C1
:103C0000014409C99847BDE801400249084700003E
:103C100008EB0100913300001FB5094C094A234607
:103C20000121094800F006F900230393074B012105
:103C3000E41A01A80193029400F016F904B010BD33
:103C40000000072000000020BCF201001009002045
:103C500010B50C7A0B6804F01F0223F01F031A43FF
:103C6000CB68640923F01F03054943EA440343F08A
:103C70000103C1F89800C1F89C20C1F8A03010BD24
:103C800000ED00E0072810B5044608D9024645219A
:103C9000044816F031F96FF01504204610BDFFF707
:103CA000D7FFFAE7EC0A02002DE9F04F89461446E7
:103CB00006464FF00008514D85B0C84527DAD6F8C2
:103CC00004A0BAF1000F44D0BAF11F0F18D91AF0AE
:103CD0001F0F15D1D6F800B01BF01F0F10D158469A
:103CE00016F0CDFE07460AEB0B00013816F0C7FEB2
:103CF000874210D06FF015073A464521404802E050
:103D0000424645213F4816F0F7F86FF0150420466B
:103D100005B0BDE8F08F17F1160FEDD0BC42EBDD1A
:103D2000C5F89870D5F89C10C5F89870D5F8A030F3
:103D300021F01F0143F01F0BD6E900321A449942CB
:103D400002F1FF3A1DD1D34507D13146F8B216F042
:103D50009FFE08F101080C36AFE73146C5F89870B0
:103D6000D5F89C3022F01F0203F01F031343C5F85F
:103D70009C30E0B216F08CFE10F1160FC5D0441C3A
:103D8000E7E7C5F89870D5F8A020013B23F01F03A2
:103D900002F01F021343D3453146E0B2C5F8A0300C
:103DA000E8D016F075FE10F1160FAED0C5F8987079
:103DB000D5F89C209DF808300BF1FF3B62F304031B
:103DC0008DF80830D5F8A0309DF808205B0863F323
:103DD00047128DF80820D6E900321344009323F0EF
:103DE0001F035B44A3EB0A03013023F01F03694662
:103DF000C0B20393FFF746FFBEE700BF00ED00E04F
:103E00003F0B0200170B02000522044BC3F894205D
:103E1000BFF34F8FBFF36F8F704700BF00ED00E01F
:103E2000BFF35F8F0022024BC3F89420704700BF9E
:103E300000ED00E010B5094C2278FFF735FF207047
:103E400016300AD10649074840F26D1215F003FCFE
:103E500040F26D11024815F0F7FB10BDA62B0020B3
:103E6000670B0200E70002002DE9F74F2E4D8A464E
:103E700006464FF00008AB462C4FD04502DB03B09E
:103E8000BDE8F08FD6F80490B9F1000F47D0316843
:103E90000846019116F0F3FD0199044609EB010073
:103EA000013816F0ECFD84424FF01402204B10D084
:103EB00002FB08F36FF015024BF803201D491E4862
:103EC00040F27D1215F0C7FB40F27D11194815F044
:103ED000BBFB14F1160F2C60F0D01978A142EDDD78
:103EE00002FB08B0C7F89840C7F89840D7F89C4044
:103EF00000F10801007B64F304000871D7F8A0000A
:103F00000C79400860F347140C71D7F89C1021F02D
:103F10001F016960D7F8A01021F01F01296108F185
:103F2000010814350C36A8E7F41A002000ED00E073
:103F3000A62B0020670B0200E7000200F0B54E4DF3
:103F400087B02C68082C0AD94C494FF4D2724C48DF
:103F500015F081FB4FF4D271484815F075FB002035
:103F6000FFF75EFF474B484AC3F8C02084421BD18D
:103F7000464D01A82C70FEF78FFC00240646444FE6
:103F8000A64218D1FFF740FF3E4BD3F89030C3F361
:103F90000723082B6DD0394940F21322384815F019
:103FA0005AFB40F21321D7E7696801EB0011FFF7D4
:103FB0004FFE0130DAE7019A210102EB0413D3F836
:103FC0000CC00CEA0700B0F5001F1FD0B0F5800F41
:103FD00035D0B0F5801F3FD1586852589B68CDE965
:103FE00002022122013B20F01F010B4423F01F039A
:103FF0008DF810200593287802A9FFF743FE0028CA
:104000002EDB2B78013401332B70B9E758685258F6
:104010009B68CDE902024122013B20F01F010B44C5
:1040200023F01F031CF0010F8DF810200593E2D040
:1040300012497022124815F00EFB70218CE7586867
:104040009B685258013B20F01F010B44CDE902024E
:1040500023F01F030222CBE745210E4815F04CFF49
:1040600006494FF4E772064815F0F5FA4FF4E77188
:1040700072E7002007B0F0BDC8F20100670B020034
:10408000E700020000ED00E0AAFF4400A62B00209C
:104090000000F0FF960B020008B5024B1B68984722
:1040A000002008BD081B0020034B044A18609378C9
:1040B00043F0020393707047081B00203402002075
:1040C00008B5044814F0FBFF404080F311884FF01E
:1040D000020002DFCC0B020008B50649064821F0B9
:1040E0000701C1F1005202F5E022FDF7A9F8002016
:1040F00008BD00BF1B8700200C1B002008B543092A
:104100000CD0012B1BD01249124840F2453215F059
:10411000A2FA40F245310E4815F096FA4FF0FF33FF
:10412000C340DA07EFD50C4B03EB8003D3F8002232
:1041300022F0E04242EA0171C3F8001208BD4FF6D6
:10414000FF7300F01F00C340DB07DCD5034BEBE738
:10415000EA0B0200E700020000258450002884508A
:1041600038B50124134B144DC3F800450223032135
:10417000C5F8D0360020FFF7C1FF20460321FFF726
:10418000BDFFC5F804472146C5F804492120C5F8FC
:10419000004BFFF7B3FF21462020FFF7AFFF21467A
:1041A0000B20FFF7ABFF21460A20FFF7A7FF0020F7
:1041B00038BD00BF001000500040005007B50DF1A1
:1041C000070019F066FB114B98421CD14FF4806236
:1041D0000F4B1049C3F8B8254FF40062C3F83C25D3
:1041E0009DF807000CF0ECFE0B499DF807000CF061
:1041F000D3FE01209DF8073098400CF0C7FE002048
:1042000003B05DF804FB6FF00B00F9E70000AD0BA5
:1042100000A002502CA0025028A10250052370B526
:10422000144D154E2C780134B4FBF3F303EB8303E8
:10423000E41A18F077FE114A137823B156F82430A7
:10424000C01A072814D94FF05023D3F8141141B1E4
:104250000021C3F81411D3F814312C700CB90123C8
:1042600013702C7818F05EFE46F82400012070BD13
:104270000020FCE7A82B0020181B0020A72B002003
:1042800048B1054B054A1B68B3FBF2F35843044B96
:1042900043F00103184770474C04002040420F00D0
:1042A00060F001000CF054BD1022174B70B5C3F83C
:1042B00040244FF47F03D3F83021D3F83431072A58
:1042C0001BD1023B032B02D8104AD35CABB14FF099
:1042D0005024012600250520C4F81866C4F8145699
:1042E00019F0CAFA3046C4F8146619F0C5FAC4F8D1
:1042F0001456C4F81856002070BD4FF05023002209
:10430000C3F81426F7E700BF00300050210C02006C
:104310000E4B402928BF402170B51D460C4C461855
:10432000B04203F1020304D1002305F8113007481D
:1043300070BD02781209A25C03F8022C10F8012B60
:1043400002F00F02A25C03F8012CE9E7C72B002062
:10435000580C020030B503788BB0044607AD032B30
:1043600021D8DFE803F0021A1C1E12492846FBF789
:10437000FDFE059563781E210493A3780E4A0393EE
:10438000E3780E4802932379019363790093A3792C
:1043900014F022FB09480BB030BD0949E6E7094992
:1043A000E4E70949E2E70A212846084A14F014FB29
:1043B000DFE700BF51FB01007AFB0100A92B0020C1
:1043C00058FB01005FFB010069FB010073FB01006A
:1043D0002DE9F3410446174698461E4DD5E8AF3FF8
:1043E000DA071BD530B945211B4815F085FD6FF064
:1043F000010014E001A915F0F4FD18490246204619
:104400001AF015FA0028F2D1D5E8AF3FC3F3C00681
:104410001B0707D55721124815F06EFD002002B08A
:10442000BDE8F081A5F1D404072221464046B847F3
:10443000062809D845210B4815F05EFD45F8D46CD7
:10444000E671C4F80360E9E70723B0FBF3F0E0711D
:10445000E4E700BFD4000020700C020066FB0100FE
:10446000960C0200BF0C02002DE9F04188B0DDF887
:1044700038809C795D791E79DF7893F802C093F8D3
:1044800001E01B78B8F1000F0ED0CDE90638CDE978
:1044900004CE1346CDE90267CDE90045084A14F081
:1044A0009BFA08B0BDE8F081CDE905E3CDE9037CD6
:1044B0001346CDE90156034A009414F08DFAF0E753
:1044C000E90C02000D0D020010B5FEF7C1FB044619
:1044D00020B102464521024815F00EFD204610BDD0
:1044E0002E0D020070B504461E4615468CB0A2B1D2
:1044F00029B10A4602A8042114F066FD02A9009120
:104500002B462246242103A8FFF7AEFF3146109A1E
:1045100003A8FEF72DFA0CB070BD03462421044A0F
:1045200003A814F059FA0028F0DA6FF01500F2E74A
:10453000580D020007B50B4B0B48DA79C2EBC202EB
:10454000009200221146FFF7CDFF024630B145210F
:10455000064803B05DF804EB15F0CEBC03B05DF87F
:1045600004FB00BF0000002066FB01005E0D02009E
:1045700030B5044615468DB092B129B10A4602A85D
:10458000042114F021FD02A900912B46224624218A
:1045900003A8FFF769FF03A815F0FBFC0DB030BDC1
:1045A00003462421044A03A814F016FA0028F2DA7C
:1045B0006FF01500F2E700BF580D020007B5009339
:1045C00013460A4601460348FFF78CFF03B05DF827
:1045D00004FB00BFCD2702000A4601460148FFF751
:1045E000C7BF00BFCD27020007B5009313460A4698
:1045F00001460348FFF776FF03B05DF804FB00BFF8
:10460000C727020007B5009313460A460146034830
:10461000FFF768FF03B05DF804FB00BF73260200DC
:104620000A4601460148FFF7A3BF00BF73260200F8
:1046300007B500220346009103481146FFF752FFD9
:1046400003B05DF804FB00BFBF27020008B50248B5
:1046500010F0F0FE002008BD44020020F8B5184D0F
:10466000D5E8AF3F13F0010F2E4627D015F8CD3C0B
:10467000A5F1D40783B901F02BFE044628B14521EA
:10468000104815F039FC2046F8BDFB7923B901F03C
:1046900075FE04460028F2D1D5E8AF3F5A0701D491
:1046A00001F060FAD6E8EF3F23F48032C6E8E12F4C
:1046B0000029F7D1DB0301D5FFF7C8FF0024E2E7AB
:1046C000D40000207E0D020007B5009313460A4671
:1046D00001460348FFF706FF03B05DF804FB00BF87
:1046E000A22D02000A4601460148FFF741BF00BF64
:1046F000A22D020030B50024094D0A4B85B0284692
:104700000293039410F00EFF02AB284600934FF47F
:10471000A3620A23044910F01BFF204605B030BDF8
:10472000800C0020B60D0200C03100200146014877
:1047300011F00CB8800C0020037830B5012B13D099
:10474000022B27D07BB90A46184B03F1100453F80B
:10475000045BA34242F8045BF9D11B7813704388D1
:104760004B731B0A8B7330BD0A46104B03F11004C8
:1047700053F8045BA34242F8045BF9D11B78137031
:104780004368C3F307224B731B0CCB731B0A8A735A
:104790000B74E8E700F1100350F8042B984241F83D
:1047A000042BF9D103780B70DDE700BFBF0D0200C9
:1047B00038B50546012D104619460CD0032D16D0EC
:1047C000052D14D00C490D483D2214F044FF3D2125
:1047D000094814F039FF0A4818F074F9044620B16A
:1047E00001210C3008F072FB2576204638BD0246C8
:1047F0000B460448F0E700BFD00D0200E7000200BE
:1048000040080020A40700200246002070B50B4697
:104810000A49D1E8EF4FC1E8E50F002DF9D124B9DD
:10482000BDE870400120FFF7C3BF0121208221763F
:1048300004F10C0008F04AFB204670BD4001002046
:1048400070B504460F2C0D461046194605D80D2CA0
:104850000DD9BDE87040FFF7D7BF132C07D10C4826
:1048600018F030F9044638B90024204670BD0246DD
:104870000B4645B10748F3E701210C3008F026FB51
:1048800001232376F1E70120BDE87040FFF790BFD8
:10489000DC0800200C080020C36857211A78014862
:1048A00015F02ABB070E0200F8B506460F4603F0C6
:1048B000D5F8044640B18378012B24D0132102F0AF
:1048C00065FF204602F0D0FD3946304607F0BEFEB7
:1048D000054628BB3946304606F0C6F8144B1B681F
:1048E00023B31C6804B10C3C53F8043C13B13946A3
:1048F00030469847D4B12346E4689B68A4B10C3C89
:10490000002BF4D1F7E70023D0F8C0501321C0F8F2
:10491000C03002F03BFF204602F0A6FD002DD3D0B0
:10492000284607F0EDFED5E7002BE0D1F8BD00BF2B
:10493000E81B002038B5C368B3F801401B786BB999
:104940000F21204602F09CFE054640B9084B1A880C
:1049500022B96FEA04506FEA1050188038BD012167
:1049600002F0AAFD2846BDE8384002F07DBD00BF38
:1049700014230020F8B5C5682E78C6B9B5F80170C3
:104980000F21384602F07CFE044630B93A46BDE8B5
:10499000F8404521064815F0AFBAEB78314603736D
:1049A00002F08AFD2046BDE8F84002F05DBDF8BD8A
:1049B000340E020010B5C3680121B3F8014020464F
:1049C00002F05EFE30B92246BDE8104045210348A2
:1049D00015F092BABDE8104002F046BD5F0E02002D
:1049E00010B5C36801211C88204602F049FE30B989
:1049F0002246BDE810404521034815F07DBABDE8C8
:104A0000104002F031BD00BF5F0E0200012108B569
:104A10000C3008F0ADFABDE80840027845210148A5
:104A200015F06ABA880E0200014608B5074808F07A
:104A3000F1F80749074819F0BCFD021E05DABDE888
:104A400008404521044815F057BA08BD440100202C
:104A500090020020A00D0020AF0E020010B5084CFF
:104A60000146052294F86F0003F036F838B994F83F
:104A70006F000422BDE81040024903F02DB810BDBC
:104A8000000000203E0C020037B5054614460846DB
:104A900002EBC3039C420DD1048AC0682146FFF794
:104AA00037FC234600902A4657210E4815F024FA79
:104AB00003B030BD224612F8081BA94210D1028A69
:104AC0006378934207D92B464521074803B0BDE8D8
:104AD000304015F011BA636803B0BDE830401847A4
:104AE0001446D7E7F80E0200D10E020070B53A481E
:104AF00008F0E4F8044600286DD0027E012A44D074
:104B0000032A65D1028A032A04D84521334815F0C7
:104B1000F3F911E004210C3008F02AFAFF2243884F
:104B200006886276228AC6F30B009342608307D020
:104B300045212B4815F0E0F9204608F027F913E04D
:104B40000F2102F09DFD054618B94521628B2548CD
:104B5000DDE702F0CBFD21466076320B284602F0FD
:104B600049FB284602F080FC1F4BD3F84431002B50
:104B700031D01E491E4819F01CFD021E2BDABDE87B
:104B8000704045211B4815F0B7B9028A012A02D8A6
:104B900045211948BBE702210C3008F0E9F9054628
:104BA000007816F04DF883070BD440F69B2213498A
:104BB000134814F050FD404080F311884FF003007B
:104BC00002DF062321460F4A2878FFF75DFFB3E78F
:104BD00045210D489BE770BD440100201F0F0200D6
:104BE000450F02006E0F020000000020900200201E
:104BF000A00D0020AF0E0200950F0200B60F0200BC
:104C0000E700020090F30100EA0F020010B5012155
:104C100004460C3008F0ACF92146BDE810400A23E8
:104C2000014A0078FFF730BFC0F3010070B5C568D6
:104C30000121B5F80160304602F022FD044630B98A
:104C40003246BDE8704045210B4815F055B92B7828
:104C50003BB9D5F80330C0F8B530D5F80730C0F807
:104C6000B930201D4FF4805116F015F82046BDE8EC
:104C7000704002F0F9BB00BF5F0E02002DE9F34166
:104C80000646907A0F46144607F0D2FE374D85420D
:104C90000ED0A47A204607F0CBFE2346CDE90005CE
:104CA00032465721324815F027F902B0BDE8F081AD
:104CB000204607F0C5FE4FF00C082E4D08FB0050B3
:104CC0004388B3420DD0204607F0BAFE3246572142
:104CD00008FB00504388284802B0BDE8F04115F0B9
:104CE0000BB9264ED6F8400120B108F04FF800234A
:104CF000C6F84031204607F0A3FE0C2606FB005004
:104D000043689BB197B9204607F09AFE012106FB44
:104D100000504268D2E90003127A03F01F06B14046
:104D20005B09E2B100EB830015F0B5FF204607F008
:104D300087FE0C2606FB00508368002BB5D020466A
:104D400007F07EFE70432F54204607F079FE06FBE5
:104D50000055A86802B0BDE8F04110F011B8C94391
:104D600000EB830015F0B3FFE0E700BFA8080020C8
:104D7000031002002C1B00203D1002000000002048
:104D800038B5042104460C3008F0F2F84578017873
:104D900022464088FFF772FF25B1BDE8384002483F
:104DA0000FF0EEBF38BD00BF2801002038B5044623
:104DB00003210C3008F0DCF8E3680578197840F638
:104DC0003543B0F80100984206D1BDE838400A46A4
:104DD0000648572115F090B82246FFF74FFF25B13E
:104DE000BDE8384002480FF0CBBF38BD7510020057
:104DF0002801002001232DE9F347C768018A3A788A
:104E000003EB82038B426DD900913948452115F09F
:104E100073F802B0BDE8F08752464521354815F0D9
:104E20006BF801353B789D42F3DA07EB8503B3F865
:104E300001A00F215046B3F8036002F021FC0446A4
:104E40000028E9D000F1280A0EB34FF04003EFF339
:104E5000118283F31288BFF36F8FE3696BB1013B5B
:104E6000E36182F31188BFF36F8F204602F048F9A7
:104E7000013E0FF085FFB6B2E6E763695BB982F3E6
:104E80001188BFF36F8F4521484615F035F820464D
:104E900002F0EAFAC5E7A16918688B42606108BFB1
:104EA000A06182F31188BFF36F8F4FF04002EFF3E0
:104EB000118182F31288BFF36F8FDA68E261C3F861
:104EC0000C80C3F80080626A4AB9C4E9083381F3F0
:104ED0001188BFF36F8F504610F0ACFAC5E713602E
:104EE0006362F4E70025DFF81090A8469AE700BF58
:104EF000B0100200DF1002000011020073B5C56897
:104F00000121B5F80160304602F0BAFB044638B919
:104F100032464521284802B0BDE8704014F0ECBF8D
:104F20002B78061D1A2B19D1C378012B2AD14FF4E7
:104F30008061304615F0AFFE42050FD4D4F8A8309A
:104F400069460093D4F8B0302046019303F0EEF8A0
:104F5000204602B0BDE8704002F086BA2B788BB9CB
:104F6000B5F80330A4F8A630B5F80530A4F8AC3095
:104F7000B5F80730A4F8AE306FF48071304615F004
:104F8000A6FE14E0D6E8AF3FDB05F5D52B78202B45
:104F9000F2D194F8B430002BEED0013B84F8B43059
:104FA0004FF42032002304F1600010F031FC204661
:104FB00002F020FCCCE700BF5F0E020010B5C1E993
:104FC00000239DF808300C460B7207F039FD0C22C7
:104FD000024B02FB00335C6010BD00BF2C1B0020A5
:104FE0002DE9F0474FF0FF3206464FF0FF331D48E2
:104FF0000F4617F067FD044650B91B491B4840F2A5
:10500000031214F028FB40F20311174814F01CFBA4
:105010004FF0000800F10C0A0121504607F056FF3E
:10502000204684F8188007F00BFD4FF00C09104D56
:1050300009FB00504680204607F002FD09FB0050A6
:10504000C0F80880204607F0FBFC09FB005503214F
:105050005046C5F8048007F0A5FF068087702046FB
:10506000BDE8F087A8080020B60F0200E7000200A4
:105070002C1B0020F0B5074615460C4687B021B919
:10508000FFF7AEFF0446002849D001220021684600
:1050900019F028FA204607F0D3FC0C23234E03FB1B
:1050A0000060C0F808D0204607F09CFE014620486A
:1050B00007F04CFE4FF4A022002368460FF09AFE42
:1050C00058B140F24B121B491B4814F0C4FA40403F
:1050D00080F311884FF0030002DF204607F0B0FC98
:1050E0000C235843365C96B133463A465721134851
:1050F00014F002FF204607F049FE092E12D00D2EB3
:105100000CBF6FF00B006FF0040007B0F0BD15B1DD
:105110002C600020F9E7204607F038FEF9E76FF031
:105120006800F2E76FF06E00EFE700BF2C1B002075
:105130004C010020B60F0200E70002001C11020023
:1051400073B506460D4642F22F00002101AAFFF773
:1051500091FF044630B14521084814F0CDFE2046A9
:1051600002B070BD0198C368B3F801203280B3F873
:1051700003302B8007F00AFEF1E700BF3D1102006B
:10518000F7B5144B054693F99B300C46002B1DDAFE
:1051900014B9204603B0F0BD082C4FF0000142F2D4
:1051A000180001AA264628BF0826FFF763FF00283B
:1051B000F0D1019F3246F9682846013119F0BBFB56
:1051C000384607F0E3FD3544A41BE1E76FF08500A6
:1051D000E0E700BF000000202DE9F043054600266F
:1051E0008D4BB0F80190198849F47042914289B012
:1051F00004BF1E80012600F073FE2C7834B33C2CD3
:105200001CD101F075FA6FF08001103015F05FFDD0
:105210000020FFF723FC054630B945217F4809B03F
:10522000BDE8F04314F068BE0473002102F044F9B5
:10523000284609B0BDE8F04302F016B922465721CE
:10524000774809B0BDE8F04314F056BEEB782F1D47
:10525000012B08BF734B384608BF93F86F4015F019
:10526000EBFC3946E8B106A815F0DBFC05F11101AD
:105270000DF1110015F01FFD01238DF81030EB78B2
:10528000012B1AD03846FFF765F8452102466648DB
:1052900014F032FE1321484615F031FD09B0BDE887
:1052A000F083204615F051FE014606A815F008FDD2
:1052B000394604A815F004FDE1E706A8FFF7CEFB88
:1052C000EB780446012B0AD101F012FA80466FF008
:1052D0008001103015F0FBFC404615F05EFF002CFD
:1052E000D0D020460022B5F8013006A920F8903B26
:1052F00015F0E6FCB5F81730A4F8A630B5F819306B
:10530000A4F8AC30B5F81B30A4F8AE30EB782273BB
:10531000012BE37015D104A904F1970015F0D0FC1E
:1053200001F0E6F9217A3F4AC1EBC101114404F1D1
:105330009E0015F0C5FCD2F8E4305D0601D501F001
:1053400081FB0721204602F0B7F81EB1012120465B
:1053500002F0B2F8204615F0A3FF637B072B53D170
:10536000231DD3E8AF3F13F4805F2E4E1FD1E378A7
:105370001BB196F8D830180719D5022142F2160051
:10538000FFF72EFE0546002842D002210C3007F020
:1053900009FE238800220380294642F21600FFF707
:1053A00069FE024618B14521204814F0A5FD96F883
:1053B000D930D9070CD50021022320461A46009186
:1053C00015F0D6FC024618B14521194814F094FD99
:1053D00096F8D8309A0617D5D6F868319B689B079F
:1053E00012D50DF10E0103A8FFF7AAFE60B9BDF8B2
:1053F0000E202046BDF80C1015F09CFC024618B19A
:1054000045210C4814F078FD204602F02DF845E7C0
:105410006FF06802C7E700BF14230020621102008A
:105420008811020000000020A6110200C71102002E
:10543000ED1102000912020000B5C16889B00B78B5
:1054400001A88DF80030B1F801300431ADF8013019
:1054500011F8013C8DF80330B1F80730ADF8173082
:10546000B1F80930ADF81930B1F80B30ADF81B3098
:105470004B7B8DF81D3015F023FC07490DF10B0017
:1054800015F019FC0DF1110015F015FC6846FFF739
:10549000A3FE09B05DF804FB520C020037B50446C8
:1054A0000D468DF80700A0B929B1072228460A4900
:1054B00019F0ADF940B9002008490DF1070206F0D6
:1054C000F9FF002003B030BD29462046FFF7ECF974
:1054D000F7E76FF01500F5E7450C0200ADAC0100F1
:1054E00029289ABF014B185C092070473516020025
:1054F00070B5C3680F21B3F801601D78304602F023
:10550000BFF8044630B93246BDE870404521164820
:1055100014F0F2BC65B12846FFF7E2FF29460246C7
:10552000204602F03FFA2046BDE8704001F09CBFE3
:105530008378012BEFD106F0C3FE204615F092FBD5
:105540000028E8D10520FFF7CBFF052102462046C1
:1055500002F028FA4521054814F0CEFC052120462A
:1055600002F014F9DFE700BF340E02002A12020035
:10557000F8B5C6680F21B6F801703578384602F0E4
:105580007FF8044630B93A46BDE8F84045211A484C
:1055900014F0B2BC65B12846FFF7A2FF29460246C7
:1055A000204602F0FFF92046BDE8F84001F05CBF5C
:1055B0008278F378012AC37205D00020FFF790FFAC
:1055C00000210246ECE70BB106F07AFE204615F00A
:1055D00049FB0028F1D10520FFF782FF0521024693
:1055E000204602F0DFF94521044814F085FC05212E
:1055F000204602F0CBF8D6E7340E02002A12020051
:1056000070B58EB06C4606460A4D0D2E0FCD0FC4F8
:105610000FCD0FC40FCD0FC495E8030084E803003D
:105620009DBF0EAB03EB860656F8380C02480EB051
:1056300070BD00BF98EF010055120200024BD3F875
:1056400068315B69184700BF0000002038B5054687
:105650000C4619B9FFF7C4FC0446C0B140F6354307
:105660009D420ED12046FFF7E9FF054668B102468C
:105670004521084814F040FC204607F087FB2846E7
:1056800038BD2146044807F061FB0025F7E76FF0BD
:105690006805F4E75D1202004C010020F8B50446ED
:1056A000458B477E807A07F0C3F96169064649B1A8
:1056B000637ADA0704D4C36A20461B689B6898475C
:1056C000002363612146304618F0FEFE224B93F81A
:1056D0008A309B063ED5384602F0F4FB044630B9CA
:1056E0003A46BDE8F84057211C4814F005BC437BFE
:1056F000073B012B08D91A48572114F0FDFB20461F
:10570000BDE8F84001F0B0BE01F0AEFE052140F664
:105710003540FFF765FC044628B9BDE8F84045214F
:10572000104814F0E9BB00F10C070121384607F0DE
:1057300039FC012604210670384607F033FC0023AB
:1057400005808670C3702146BDE8F84040F63540BC
:10575000FFF77CBFF8BD00BF0000002084120200EC
:10576000B2120200E3120200F0B5C56801212F88D1
:1057700087B0BCB2204601F083FF064638B9224606
:105780004521254807B0BDE8F04014F0B5BB02AC98
:10579000D5F80220D5F8063001946989009116F0F9
:1057A00059FF38B3122142F21A00FFF719FC0546DF
:1057B00040B94521194814F09FFB304601F054FED2
:1057C00007B0F0BD12210C3007F0ECFB0346224677
:1057D00023F8027B06AF144603CCBC421860596024
:1057E000224603F10803F6D1294642F21A00FFF7D8
:1057F0002DFFE2E7022142F21B00FFF7F1FB044616
:105800000028D6D002210C3007F0CCFB21460780BF
:1058100042F21B00EBE700BF5F0E02000B13020019
:1058200070B506460D4642F221000321FFF7D8FB72
:10583000044628B9BDE870404521084814F05CBB17
:1058400003210C3007F0AEFB068085702146BDE8D1
:10585000704042F22100FFF7F9BE00BF271302009B
:1058600073B5C368D9789A781E8842EA0122ADF8E8
:10587000002059791A79B4B242EA0122ADF8022027
:10588000D9799A79204642EA0122ADF804201A7AA1
:105890005B7A012142EA0323ADF8063001F0F0FE05
:1058A000054650B945211C48224614F025FB02212B
:1058B0002046FFF7B5FF02B070BD694601F0EAFF70
:1058C00038B91E212046FFF7ABFF284601F0CCFD7A
:1058D000F1E70E2142F22000FFF782FB0446002888
:1058E000F3D00E210C3007F05DFB00230680C0F8DA
:1058F0000A30BDF8003021464380BDF80230838075
:10590000BDF80430C380BDF80630038142F22000A8
:10591000FFF79CFED9E700BF5F0E02002DE9F84FAC
:10592000454FDFF8188107F11409FB6848466FF30B
:105930009433FB6001F02CFD451C4FF0FF324FF01B
:10594000FF3329463C4811F013FC58B140F6183299
:1059500041463B4813F07FFE404080F311884FF0F2
:10596000030002DF344EDFF8DCA015B910F06CFE46
:10597000DBE7F268C2F38632022A4ED9042A56D1F6
:10598000337B002B4CD1002200232F4817F09FF8C7
:10599000044658B940F6AA224146294813F05BFE56
:1059A000404080F311884FF0030002DFDFF89CB025
:1059B0004FF0FF334FF0FF3225480FF01BFADBF8B2
:1059C000403153B14521234814F096FADBF84001E9
:1059D00007F0DCF90023CBF84031204607F002FA4B
:1059E000CBF840012046FFF729FE0246A8B1452129
:1059F000194814F081FA16480FF0C2F9204607F052
:105A00001FF80C22154B1F2102FB00302246408854
:105A1000FFF734F9204607F0B9F91436013DA4E741
:105A2000012BFAD13069383802F098F9F5E757219F
:105A3000504614F061FAF0E754020020B60F02005D
:105A4000E7000200661302004C0100200000002065
:105A500028010020461302005D1202002C1B0020CA
:105A60002DE9F041044600F10C06304617F046F8E7
:105A7000B4F810800546B8F1010F09D84246452117
:105A8000174814F039FA2046BDE8F04107F07EB916
:105A90003046022107F06CFA0746007815F0D0F87E
:105AA000C20706460BD440F6CA620E490E4813F0F0
:105AB000D2FD404080F311884FF0030002DF052340
:105AC00021460A4A3878FEF7DFFFB307DBD5636962
:105AD000A4F8108013FA85F5E560BDE8F08100BFF9
