:10000000906700209542000027C80100814200004F
:1000100081420000814200008142000081420000D4
:100020000000000000000000000000008944000003
:100030008142000000000000E54300008142000012
:10004000F9460000F9460000F9460000F9460000B4
:10005000F9460000F9460000F9460000F9460000A4
:10006000F9460000F9460000F9460000F946000094
:10007000F9460000F9460000F9460000F946000084
:10008000F9460000F9460000F9460000F946000074
:10009000F9460000F9460000F9460000F946000064
:1000A000F9460000F9460000F9460000F946000054
:1000B000F9460000F9460000F9460000F946000044
:1000C000F9460000F9460000F9460000F946000034
:1000D000F9460000F9460000F9460000F946000024
:1000E000F9460000F9460000F9460000F946000014
:1000F000F9460000F9460000F9460000F946000004
:10010000F9460000F9460000F9460000F9460000F3
:10011000F9460000F9460000F9460000F9460000E3
:10012000F9460000F9460000F9460000F9460000D3
:10013000F9460000F9460000F9460000F9460000C3
:10014000F9460000F9460000F9460000F9460000B3
:04015000F94600006C
:04015400FFFFFFFFAB
:1001580053B94AB9002908BF00281CBF4FF0FF3126
:100168004FF0FF3000F00CB8ADF1080C6DE904CE8B
:1001780000F008F8DDF804E0DDE9022304B0704778
:10018800704700BF2DE9F04786468C460846089E12
:10019800154674461946002B40F0C1808542B2FAD4
:1001A80082F245D94AB1C2F1200300FA02FC954017
:1001B80094402EFA03F343EA0C0C4FEA154EA8B20A
:1001C800230CBCFBFEF80EFB18CC08FB00F943EA35
:1001D8000C43994528D9EB1808F1FF3704D2994503
:1001E80002D9A8F102072B44A3EB0903A4B2B3FB7D
:1001F800FEFC0EFB1C330CFB00F044EA0344A04257
:1002080014D92C190CF1FF3304D2A04202D9ACF155
:1002180002032C44241A43EA07401EB1D4400023A9
:1002280034607360BDE8F0874746DDE76346F1E771
:1002380092BB431B01214FEA154EAFB2200CB3FB12
:10024800FEFC0EFB1C330CFB07F840EA0343984501
:1002580061D9EB180CF1FF3004D2984502D9ACF102
:1002680002002B44A3EB0803A4B2B3FBFEFC0EFB75
:100278001C330CFB07F744EA0344A7424DD92C1959
:100288000CF1FF3304D2A74202D9ACF102032C448B
:10029800E41B43EA0040C0E7C2F1200395409440C4
:1002A80020FA03F12EFA03F34FEA154E9040AFB24D
:1002B8000343B1FBFEFC0EFB1C10190C0CFB07F8EA
:1002C80041EA0041884522D969180CF1FF3004D26F
:1002D800884502D9ACF102002944A1EB08019BB280
:1002E800B1FBFEFC0EFB1C110CFB07F743EA0143B4
:1002F8009F420ED9EB180CF1FF3104D29F4202D96C
:10030800ACF102012B44DB1B41EA004193E7604654
:10031800E3E76146F7E76046A4E76346B8E7834248
:1003280006D916B9002108467CE7C6E900E0F9E7D6
:10033800B3FA83F78FB9834201D3724508D8BEEB6D
:10034800020460EB030301209C461EB9002169E703
:100358003846FAE7C6E9004CF8E7C7F1200CBB407D
:100368000EFA07F522FA0CF42EFA0CF1BA401C43E7
:1003780020FA0CF3B8404FEA144901431FFA84FEEF
:10038800B3FBF9F809FB18300B0C08FB0EFA43EA2B
:1003980000439A4540D9E31808F1FF3004D29A4542
:1003A80002D9A8F102002344A3EB0A0389B2B3FBE4
:1003B800F9F809FB183308FB0EFE41EA03418E45A4
:1003C8002CD9611808F1FF3304D28E4502D9A8F15F
:1003D8000203214443EA0040A1EB0E01A0FB02986E
:1003E8004145CE46434602D306D14D4504D2013895
:1003F800B9EB020E68EB0403002EA7D0B5EB0E0292
:1004080061EB030101FA0CFC22FA07F3F9404CEA0C
:100418000303C6E9003199E74046C5E74346D9E7F3
:1004280010F8012B11F8013B012A28BF9A42F7D096
:10043800D01A7047034611F8012B03F8012B002A44
:10044800F9D17047034613F8012B002AFBD1181A7B
:1004580001387047000000002DE9F04184B0654D77
:1004680000AFD5F83431996811F001011ED140F67A
:10047800034007F10C0205F013FE0446002840F083
:10048800B480FC68E3681B786BB907F0C1FD05F11F
:100498008803D3E8AF2F02F00902D3E8EF1FC3E8BF
:1004A800E02F0028F9D120460FF064FD002141F229
:1004B800030007F10C0205F0F3FD0446002840F0A4
:1004C8009480FB684C4EDA68D2F80100D2F8051027
:1004D80003C618460FF04EFD214641F2010007F110
:1004E8000C0205F0DDFD044600287ED1F868C368DB
:1004F8005A7885F824205A88EA841A7985F82520BC
:10050800B3F807202A85B3F805306B850FF032FD64
:10051800214641F2020007F10C0205F0C1FD044634
:10052800002862D1D7F80C80D8F80C20531C41322F
:10053800344618685968083303C493422646F7D1ED
:100548002E481CF003FA40460FF014FD08F032FB69
:100558000446002849D195F83E309E0610D4022161
:10056800274A28481CF09CFA95F830305C064DD490
:100578000121254A23481CF093FA6FF0120434E055
:10058800072140F6334005F0F9FB0646002800F045
:10059800718107210C301FF0B2F84FF0FF33037060
:1005A8000623C0F802408471447004712246C37067
:1005B800314640F6334005F073FD0446A8B90121E1
:1005C80040F6314005F0DAFB0646002800F052817B
:1005D80001210C301FF0A2F82246314640F6314086
:1005E80005F05EFD04460028BED020461037BD4603
:1005F800BDE8F081300000205C000020640000208D
:10060800F9FA0200181E020027FB0200002142F23C
:10061800030007F1080205F043FD04460028E4D171
:10062800BB68B24EDA68D2F80100D2F8051003C6EA
:1006380018460FF09FFC95F893300F2B40F23E813F
:1006480095F85D1011F0200800F02281214642F251
:10065800600007F10C0205F023FD04460028C4D110
:10066800D7F80C80D8F80C40B4F801309AB24AB1E7
:10067800E2783AB1A5F8BC30E27806F128001146D4
:100688001CF02CFAA3889AB21AB1A279002A40F079
:10069800F4800121964A97481CF002FA40460FF070
:1006A80069FC95F8306016F0200618D1022140F652
:1006B8006D4005F063FB0446002800F0DB80022152
:1006C8000C301FF01CF80123214603704670324697
:1006D80040F66D4005F0E4FC0446002885D195F805
:1006E8005030180714D5002142F21C0007F1080207
:1006F80005F0D6FC044600287FF477AFB868C368D5
:10070800D3F80120D3F80530C5E926230FF032FCD1
:1007180095F89030990623D507F10C01B81D05F01E
:1007280037FD044600287FF460AF042142F224001C
:1007380005F024FB0646002800F09C8004210C30BC
:100748001EF0DDFFFB8822460380BB8931464380CB
:1007580042F2240005F0A4FC044600287FF445AFCB
:1007680095F890305A0611D5002142F22A0007F177
:10077800080205F095FC044600287FF436AFB868F7
:10078800C3685B7885F8F4300FF0F4FB082142F277
:10079800010005F0F3FA044600286BD008210C305C
:1007A8001EF0ADFF95F89060534B16F0020F02460D
:1007B800524808BF1846B30695F8913048BF40F034
:1007C800400013F0090F18BF40F40060F30795F8D4
:1007D800563048BF40F0100003F00603062B95F88A
:1007E800933008BF40F4C07013F0300F4FF0000191
:1007F80005D09E0654BF40F0807040F040701E0641
:1008080044BF022140F040501CF072F921460022FA
:1008180042F2010005F044FC044600287FF4E5AEEE
:1008280095F83030B5F8BC10980654D4D1B941F2D7
:10083800050007F10C0205F033FC044600287FF49C
:10084800D4AEB5F8BC30FC684BB9E3682C48B3F8B3
:100858000120A5F8BC209A8811461CF03FF92046D3
:100868000FF088FB082140F6014005F087FA04469E
:1008780000284DD16FF06804B7E6A5F8D830A27902
:10088800204811461CF02AF9A37985F8DA3005E7E3
:1008980002211D4A17481CF003F9414642F20200A2
:1008A80007F10C0205F0FCFB044600287FF49DAE1E
:1008B800FC68204604F028FF2046F0E6214642F274
:1008C800020007F1080205F0EBFB044600287FF45C
:1008D8008CAEBC68EDE70029C4D101210B4A05485C
:1008E8001CF0DEF86FF004047FE600BFC0000020B3
:1008F8004BFB0200181E02000EF287002EF2870042
:10090800F00000200C01002063FB0200B1FB020094
:1009180008210C301EF0F3FE95F890300246D907F6
:1009280047BF6FA1D1E900014FF000515E481CF0AC
:10093800DFF82146002240F6014005F0B1FB0446ED
:1009480000287FF452AE014607F10C024FF6014031
:1009580005F0A6FBC8B1554A022155481CF0A0F87D
:1009680006F026FC044600287FF43FAE09F0ECF9B7
:10097800044600287FF439AE08F0EEFA0446002851
:100988007FF433AE05F000FF2FE6FB686D46DC68A8
:100998008AB0B4F80130032B96BF464A464952F84C
:1009A80023106A46D3614FF4007344481384444BC0
:1009B800C2E9050142F8103F4FF413513C481CF0BE
:1009C8008AF8B4F80120AD46022AB4F8033049D1B8
:1009D800052B47D83B4A52F823106D468AB06A4621
:1009E800D3614FF4007338481384354BC2E90501CD
:1009F80042F8103F4FF413512D481CF06CF8AD46E7
:100A08006379A679032B98BF304AB4F80750D4F815
:100A180009006C468CB094BF52F8231026496A46E8
:100A2800C2E907364FF40073DFF8BCC09385284B42
:100A3800C2E905C1C2E909504FF4735142F8103FA9
:100A48001B481CF048F8A546F8680FF093FA0021F7
:100A58004FF6024007F10C0205F022FB044618B1DC
:100A68001C4A79E71449B8E7F8681B4DC368B3F81E
:100A78000130A5F875300FF07DFA95F875305B07F1
:100A88007FF56EAF21464FF6034007F10C0205F0E3
:100A980007FB08B1114A5FE7F868C3685B7885F817
:100AA80074300FF067FA5BE710880002D4FB02008D
:100AB800181E0200C02602003BFA0200F8FB0200E2
:100AC80004000001A826020011FC0200982602007A
:100AD8000700000156FC0200300000207FFC0200E5
:100AE800908800020080002029FC0200000000001D
:100AF8002DE9F04F3A4B85B0D3F8042392070BD574
:100B0800D3F8042142B10022C3F80421354AD3F8AE
:100B18000431136801331360334D0024A8464FF4A1
:100B280080362F4FD7F8043306FA04F919EA030F71
:100B38002DD00123A340DB432C49D1E8EF2F02EA53
:100B48000300C1E8EC0FBCF1000FF6D122FA04F360
:100B5800DB0703D4264B53F82430C3B120461EF0DC
:100B6800DBFF10F017FB4FF02002EFF3118382F345
:100B78001288BFF36F8F08EB041CDCE902AB504509
:100B880071EB0B010AD283F31188BFF36F8F103515
:100B980014B105B0BDE8F08F0124C3E70020D5E902
:100BA80000129FED0D7B28600D4803938CED027BAE
:100BB8000292C0F8489320461EF0AEFF039B83F3D1
:100BC8001188BFF36F8F0029E1D0029A5B4600922B
:100BD80052468847DBE700BFFFFFFFFFFFFFFFFF2D
:100BE80000500150983B0020E81E00208C3B00205C
:100BF80040510150000000002DE9F0472DED028B17
:100C080004469FED498B4A4E84B04FF02003EFF322
:100C1800118783F31288BFF36F8FD4F8C8508DB94A
:100C2800022104F1E00020F009F8002843D1002354
:100C38008DED008B3946029304F1D0023D4817F040
:100C480043FBE2E7D4F8CC202B689542C4F8C830BF
:100C580008BFC4F8CC30D4F8E03043F00203C4F83D
:100C6800E030EB6823F0040343F00103EB606B68AA
:100C780087F31188BFF36F8F284698474FF02003FA
:100C8800EFF3118983F31288BFF36F8FEB6899072D
:100C980023F0010219D4EA60D4F8E03023F002030B
:100CA800C4F8E03089F31188BFF36F8FDB05ACD44B
:100CB80017F068FAA9E704F1D805002201212846AF
:100CC80020F01DFA0028F8D1B1E7306823F00303BB
:100CD800EB600028E0D00027BA46D0F80080002852
:100CE800DAD04268014695420BD1016897B972681B
:100CF8003160824200D1716040F808AB16F0BAFD4D
:100D08003946B8F1000F0BD0D8F8002040460F46FE
:100D18009046E4E739607268824208BF7760EBE783
:100D28004246F3E7AFF30080FFFFFFFFFFFFFFFF3F
:100D3800FC3B0020A141002010B5014604460B48A9
:100D480019F011F900200021094BC3E90001002323
:100D580004F13800C4E90933C4E90B33054920F02C
:100D680043F8BDE81040044819F09FB858E0020065
:100D7800A00C002001140000C4090020F8B50E469C
:100D88001546124B12689C68114819F0ECF8114F7F
:100D98007CB12A683B689A420BD00F4B18681EF04A
:100DA800D9FA044628B101460C4819F0DCF8204667
:100DB800F8BD2B68F1680A4A3B6011600BB9002442
:100DC800F5E7084819F071F8F9E700BFC4090020F1
:100DD8006BE00200042E0020302E002095E0020077
:100DE800182E0020AC09002038B514460D460B48D3
:100DF80019F0B9F822460A4B04F110011D60094B9D
:100E080052F8040B8A4243F8040BF9D1064819F04A
:100E18004EF8BDE83840044819F047B8B8E0020079
:100E2800342E00204E3F0020DC09002010B5044C71
:100E3800044B206819601EF0B2FA00B9206010BD9A
:100E4800302E0020342E002073B514462B4A116032
:100E58004A7A013A012A4DD924B300220192052287
:100E6800ADF800204FF6FF72934221D0062253437B
:100E78006D2B4FF00A021ED9B3FBF2F39BB2B3F508
:100E8800804F28BF4FF480436946ADF8023007F021
:100E980017FE0446014680B1194819F064F819484C
:100EA80019F003F8184819F000F8204602B070BD90
:100EB8004FF48043E8E71346E6E7144819F053F87F
:100EC800BDF802509DB10A234FF4004640F2E730C6
:100ED80021465D434FF47A720023C5FB0601FFF7F4
:100EE80037F902460B460A4816F0E2FED7E7002219
:100EF8001346F8E74FF0FF34D7E700BF342E002041
:100F0800D8E00200840A00203C0A0020F9E0020030
:100F18000000002008B5084B1B683BB15A7A1878C6
:100F2800012A14BF032104211EF0BBFABDE80840C2
:100F3800024819F018B800BF342E002010E1020052
:100F48000A4608B50146084819F00DF800220023A2
:100F5800064818F0AEFF014620B1BDE80840044835
:100F680019F001B808BD00BF1CE10200C409002047
:100F780042E1020008B5074B1968814209D1064BC6
:100F880006481A6818F0EFFFBDE80840044818F052
:100F98008CBF08BD1C2E0020182E002065E1020021
:100FA8006C0A002002465389084613B1014904F02F
:100FB80035BA70475112000010B50C46064818F0B3
:100FC80074FF3CB9054818F072FFBDE810400348AB
:100FD80018F06BBF10BD00BF9C0A0020DC09002080
:100FE8002DE9F74F02460F46434B9D68002D7FD1F0
:100FF8004968424818F0B7FF2E4607F10C047B6891
:101008009D4213D33E4B06F007061E603D4B1B68FE
:1010180033B94FF0FF323C4B3C481A6018F045FF9B
:10102800354803B0BDE8F04F18F03FBF54F8049CB2
:1010380029464A46364818F096FF4FF000084FF008
:10104800010BA4F10C0AC14508D1A178062914D0D6
:10105800304803B0BDE8F04F18F085BF9AF8341057
:101068002D48019118F07FFF01990AF11C0A0BFA2B
:1010780001F10E4308F10108E5E72146274818F079
:1010880072FF20461EF025F8002812DDC0B20DF0D0
:1010980005FB814620461EF03BF8B0F100080EDC47
:1010A8001F4818F060FFB8F1000F1ED041461D48D8
:1010B800CFE71D4818F057FF4FF0FF38F6E75FFA03
:1010C80088F01DF0FBFF0121804620461EF03FF806
:1010D800164B002218604946154B404611F006FC95
:1010E800144B186008B91448E4E70135643486E7FE
:1010F80003B0BDE8F08F00BF94090020A4E102000E
:10110800002E00200C2E0020042E0020AC09002008
:10111800DCE102000AE20200FBE1020023E2020035
:1011280075E20200E0E2020041E20200B021002084
:10113800B4210020FC2D0020A8E2020070B503783D
:101148008AB004460E4607AD032B20D8DFE803F02B
:1011580002191B1D11492846FFF76CF9059563789C
:101168001E210493A37830460393E3780C4A029334
:101178002379019363790093A37917F0FDFC0AB0F2
:1011880070BD0849E7E70849E5E70849E3E70A21A8
:101198002846074A17F0F0FCE0E700BF03E3020027
:1011A80025E302000AE3020011E302001BE3020048
:1011B8001CE2020030B50D4C0D46236889B083420D
:1011C80011D11CF091FA6946FFF7B8FF2A46694623
:1011D800074818F0C8FE20681CF0B4F90023054839
:1011E800236018F062FE09B030BD00BF0C2E00204D
:1011F80048E30200240A002070B50C4688B0054672
:101208001CF072FA6946FFF799FF0B4E44B122466B
:1012180069460A4818F0A7FE0023336008B070BD7D
:101228006946074818F09FFE28461CF077F9306099
:10123800044818F03AFEF1E70C2E00206AE3020099
:1012480088E302000C0A0020F0B503780546162B47
:101258000C468BB014D14378042B11D94168022273
:1012680001A81BF0B5FB58B100238DF8083041F6F2
:10127800520302A901A8ADF80A301BF07BFB10B19C
:1012880001200BB0F0BD6B6820681A795D8802A94F
:1012980045EA0245FFF752FF237929461A4802AA70
:1012A80018F061FE194B1B68D3B9194818F0FDFDF9
:1012B8002346184E04F11007324618685968083357
:1012C80003C2BB421646F7D12268134B11680020AF
:1012D80019609188998092799A71104B1D60D0E7B6
:1012E8000F4B1E68002EE3D007222068711C20F0E7
:1012F8001DF90028DCD12279337A9A42D8D1F368D3
:10130800AB42D5D1D1E700BF97E302000C2E0020F5
:10131800F4090020202E00205E3F0020182E002017
:10132800342E002010B5084C0B46216881420AD1A2
:101338005A79064818F017FE002323600448BDE8D0
:10134800104018F0B2BD10BD1C2E0020D4E30200DE
:10135800540A002073B504468B791546980742BF96
:10136800E36A0133E3628B795A0742BFA36A013308
:10137800A3628B79DB071ED5236B04F16806013362
:1013880023634FF0FF324FF0FF33304616F0C4F9B5
:10139800606B18B10EF0EEFD0023636328461EF063
:1013A80075F96063304616F07BF90022002304F1DA
:1013B800380016F049FC0E4AD2E90031013341F1F8
:1013C8000001C2E900314FF47A71626A0132B2FB5E
:1013D800F1F301FB1323626243B9A36A2146019327
:1013E800E36A04480093236B18F0BDFD02B070BD9A
:1013F800A00C0020F4E302002DE9F74F054600F1A8
:1014080030074FF0FF324FF0FF33384616F084F9BB
:1014180055F8040C40B9224818F0A5FD384603B029
:10142800BDE8F04F16F03CB91EF030F9002406462E
:1014380055F8040C0EF09EFD45F8044CDFF8688062
:10144800384616F02DF9358AD8F80030F76895FB3C
:10145800F3F5DFF85890DFF858A0DFF858B0D8F85F
:101468000030A34205DC304603B0BDE8F04F0EF073
:1014780081BD0123CDE900A32A4600233946D9F8C6
:10148800000011F0A1FB012805D1064818F06BFDFA
:1014980001342F44E3E70028FADA5846F6E700BF9C
:1014A8003DE4020066E40200B0210020FC2D00208B
:1014B800EC3D00207FE402002DE9F04F002091B0C0
:1014C80005F008FA054658B10146A44818F04BFD46
:1014D8002946A34818F047FD002011B0BDE8F08F59
:1014E800A04818F040FD01209F490DF0A5F80546D9
:1014F80010B101469D48E9E79D480DF0C7FC9D489D
:101508000EF096FA9C4807F0CBFA9C4807F0B2F91F
:101518009B4C9C4B9C4E2361C4F89030346004F182
:1015280068001FF0DDFA04F18003736004F1E8003D
:101538001FF0D6FADFF8F4A2944B10221D60944BEA
:10154800002194481D60CAF8005020F072F910225A
:101558000021914820F06DF94FF080738F4F904E25
:10156800DFF8CC9238683560C9F80030C6F8035007
:1015780058B11DF014FF044630B10146894818F0EF
:10158800F2FC21468848A5E73860DFF8A882D8F839
:10159800000018B107F07EF9C8F80050834B1868AE
:1015A80090B113211CF011F8044610B1014680488F
:1015B800E5E74FF4A02200237E4818F07AFC0446A1
:1015C800C8B101467C48DAE7DFF82CB2DBF8000046
:1015D80088B11BF0E3FD044610B101467748CEE719
:1015E800DBF8000006F084FA044610B1014674489E
:1015F800C5E7CBF80000734818F059FC6D4818F09F
:1016080056FC714818F053FC704818F050FC7048AC
:1016180018F04DFC6F4818F04AFC6F4818F047FC6A
:101628006E4818F044FC6E4818F041FC6D4818F0FC
:101638003EFC6D4818F03BFC6C4818F038FC6C48D0
:1016480018F091FC40F20113ADF81C3006238DF818
:10165800103004AB089340F20343ADF82430654BD7
:10166800DFF8D4C106930BAC06AB0A93BCE80F00B5
:101678000FC4DCF80030002123605F4C0BA8224621
:1016880006F09AF9834630B101465C4818F06BFCC5
:1016980059465B481EE7009003460222206807A9C6
:1016A8001BF0A9FD834610B101465648EEE7ADF898
:1016B80014008DF8160005A9206806F0ADF98346D8
:1016C80010B101465048E1E7504818F04CFC4FF47F
:1016D800203200233B4818F0ECFB60B94FF470123D
:1016E8000023394818F0E5FB002800F0A980484895
:1016F80018F039FC20E7474818F035FC20681BF043
:101708004DFD014630B10390434818F02CFC039975
:101718004248DFE6206806F0EBF9014610B1039075
:101728003F48F2E720603F4818F01DFCDFF80CC185
:101738000BACBCE80F000FC4DCF8003000212360BC
:101748000BA806F0F5FF0146002800F08E8010F186
:10175800780F00F08A803448BCE600BFA5E4020098
:1017680003E50200C7E4020090010020DEE4020065
:10177800AC010020980100206801002084010020AD
:10178800A80C0020B8010020102E0020042E0020F4
:10179800342E00204E3F0020202E0020302E002026
:1017A8005E3F002019E5020004E602000C2E00202E
:1017B80042E50200240A002075E502009AE50200CD
:1017C800C4E502000C0A00203C0A0020840A00201C
:1017D800F40900206C0A0020940900209C0A0020CB
:1017E800540A0020DC090020AC090020C4090020AC
:1017F800EEE502004F185018082E002025E60200DA
:10180800C4E6020050E6020079E60200A3E6020000
:1018180087E70200F1E6020013E7020067E702002B
:101828003CE70200ACE70200CCE70200002E0020F3
:10183800182E00201C2E0020101F0200241F02005A
:1018480000220023614818F034FB00287FF46BAFB6
:101858005F4818F088FB4FF4A02200235D4818F079
:1018680028FB00284CD05C4842E74FF4A022002314
:101878005A4818F01EFB08B1594839E7594818F07A
:1018880072FB06F0D5FF014618B1574818F06BFBFC
:1018980052E65648D9F8001018F065FBB379B288BB
:1018A8008DF8223004230993514BADF820201A7982
:1018B80030688DF823200522ADF828205A894FF684
:1018C800FF739A42079018D006235A436D2A4FF0A7
:1018D8000A0307D9B2FBF3F293B2B3F5804F28BFDE
:1018E8004FF48043434907A8ADF82A3007F014F8AD
:1018F80001460028ACD04048C8E74FF48043F1E7E0
:101908003E4818F030FBD9F800103D4AD8F80000DE
:101918000DF0D0FA014608B13A48B7E73A4818F04E
:1019280022FB4FF4A0220023384818F0C2FA08B16D
:101938003748DDE6374818F016FB4FF4A02200239D
:10194800354818F0B6FA08B13448D1E6344818F0EA
:101958000AFB4FF4A0220023324818F0AAFA002804
:10196800F2D1314818F0FFFA4FF4A02200232F4893
:1019780018F09FFA0028E7D12D4BDAF800401B68D1
:101988002C481C40214618F0EEFA21462A4B2B4AD7
:1019980038680DF003FB014608B129489AE5294843
:1019A80018F0E1FA4FF4A0220023274818F081FA32
:1019B80008B126489CE6264818F0D5FA4FF0FF32C1
:1019C8004FF0FF33234818F074FAB5E5840A002075
:1019D800ECE802006C0A002003E90200F409002088
:1019E800FCE7020028E8020055E8020080E802004F
:1019F800202E00201C2E0020B9E8020027E9020052
:101A0800302E00205CE9020081E9020094090020E0
:101A1800ABE90200D3E902009C0A0020F8E90200C1
:101A28001BEA0200DC0900203AEA0200AC090020A7
:101A3800042E002058EA02004E3F0020102E0020FD
:101A480084EA0200ACEA0200C4090020C2EA0200EB
:101A5800E7EA0200540A00202DE9F04F91B0009304
:101A680002F004030293C2F3C2030133840705465C
:101A78000E46DDF868900392059340F0BB81041D83
:101A880030B1072909D86FF01B0011B0BDE8F08FFD
:101A980001F00706341DC6F10806009B4FF0000848
:101AA8004FF0040A591E4FF0FF3347460193C346CF
:101AB8005346CDF810800DB1009820600598002895
:101AC80000F3E8809848009A824203D397488242FC
:101AD800C0F0E080039AA4EB050E92074FEA9E003F
:101AE80000F103810F2F00F2B180002D00F0058175
:101AF80007F140020DEB020C019A0CF8200C0CF8CF
:101B0800102C049801300490E7E07A285DD84B281F
:101B18000ED8472859D829282DD8252852D054D846
:101B280020287AD02338D0F1000B4BEB000B74E05F
:101B38004C382E2849D8DFE800F070484848484813
:101B48004848484848484B484848484848484859F9
:101B5800484B4B595959704B6D487048184B1848A9
:101B680048827F4B48484B487F0000204FF0000BCD
:101B78004FF0040A38E001222A38C0B202FA00F015
:101B880010EA0E0F49D110F0625C2FD110EA020B57
:101B980043D06046013C5444B4FBFAF40AFB04F415
:101BA800002D61D0A3EB050CA4446645FFF46BAF90
:101BB800002868D1042B47D159F8043B236004233B
:101BC80004342AE0019A013A01924FF0000B24E014
:101BD80011F8010C6C2834D1002011F8023C83461E
:101BE8006C2BC5D14FF0080A5346D3E709F1070912
:101BF80029F00709073424F00704F9E802AB35B1E6
:101C080006982044B0423FF63EAFC4E900AB4FF01F
:101C1800000B08344FF0080A534611F8010F00284A
:101C280078D0BBF1000F7FF470AF2528F5D14FF0C5
:101C3800010B019B013301934FF0040AECE758466E
:101C480094E700208346A5E7082B02D06FF0150023
:101C58001BE709F1070929F00709B9EC027B84EDB4
:101C6800007B08230834D8E768B9042B02D109F1AE
:101C78000409A4E7082BE9D109F1070929F00709A4
:101C880009F10809EDE705980138059059F8040BA2
:101C9800009010E7039A900720D54FF0010CA4EBB1
:101CA800050E4FEA9E00BEF5007FCFD20F2FCDD88C
:101CB800F5B107F140020DEB020E019AC0B20EF821
:101CC800200C0EF8102CBCF1000F3FF41AAF60F096
:101CD8007F000EF8200C08F101080137C5F1080251
:101CE8004FF6DA7E0434069297E74FF0000CDAE7F5
:101CF800BCF1000F01D00136EFE7029A0236002A44
:101D0800EBD10098CDE90631FEF79CFBDDE9063101
:101D18000644E2E7631BB3F5806F97D245B9A6F195
:101D28000804E018B1E600BFF0190200E01C030047
:101D3800029A9B0828602B709DF81030C2B1EB7096
:101D480085F80280B8F1000F05D0002208A8C5F177
:101D5800010C97420ED14FF0000AC5F101030DF1B5
:101D6800200901930DF1300B574512D1601B8CE609
:101D78006B70E5E710F8013B190608D504EB0C0E6B
:101D8800764503F07F03FFF47EAE04F8013B013291
:101D9800DFE7B8F1000F03D099F90020002A17DB1C
:101DA800029BD3B11AF80B2004F8012B0022019BE7
:101DB800981820448642FFF466AE99F8000000990E
:101DC80004F8010B204603921FF00CFD039A1444FB
:101DD8000AF1010A09F10109C6E799F8002055F846
:101DE80022300093029B009845F82230FEF72AFB28
:101DF800421CDCE76FF00D0047E600BF2DE9F04F0D
:101E080095B000AFBB61BB6F0446C3F3C0038A46FD
:101E180090F802B07A623B6141B9457800780BEBE3
:101E280080002044554517D8A0EB040AE3787B616D
:101E3800BBF1000F02D0BB6FD80716D47B6953BB28
:101E48007B6A1BB151462046BA69984755462846D1
:101E58005437BD46BDE8F08F461C3046FEF7F2FA0F
:101E6800013030440AF1010ADCE7237862683B62FA
:101E78009B00FB603B6AFA6104EB83097B6A002BD9
:101E880040F0FF80C8460026554609EB0B0AD045AE
:101E980051D1D94413E0BB6F9907D1D5237899461E
:101EA8003B629B00FB60636804EB8909FB617B6A0A
:101EB800002B7AD15546BBF1000F4FD15E46BB6F60
:101EC80013F0050F0CBF4FF0020B4FF0010B7B69AD
:101ED80009EB430ABB6F03F002037B62D145B6D01E
:101EE80019F8021B19F8013C54F82380AB4B9845AC
:101EF80002D3AB4B984538D33B69002B42D0F869E5
:101F080018F00AF800283DD0E8468AB06A46A54B82
:101F18005361FB69C2E906314FF400731384A24B85
:101F280042F8103F00234FF41251A04801F0C6F8C0
:101F3800023DC546D2E718F8013B54F82300FEF7E6
:101F480081FAFB6F01303BB1D7F880309E423EBF2B
:101F5800FB6F23F816000136054498E7BB6F13F0B2
:101F680004061CBF7E6AD944A9E73B6923B1F86916
:101F780017F0D2FF0028C7D1BB6FDA0705D4A5EB4D
:101F88000B05ABE77B6A002BA8D04046FEF75AFA50
:101F9800FB6F43B1D7F880309E423FBFFA6F431CB6
:101FA80022F816300136054498E7BBF1000F6ED0D1
:101FB800BB6F13F004066DD0D846002607F1400029
:101FC8005A4649461FF00EFC7B69D9445B007B608A
:101FD8007B6909EB4303BB60BB6F03F002033B6003
:101FE800BB684B4558D1B96F6378B86F890748BF4C
:101FF800002106EB030258BF4FEA5801C507D2B2C9
:1020080000F19A8010F0040F14BF40460020FB61D5
:102018006270A070E1702046BA69F9687B6A9847D7
:10202800051EFFF614AF3B6A41462370FB69BA6987
:1020380063707B6984F802B0E37007F140007B6A43
:102048009847B0F10008C0F2A480FB68AAEB0B0126
:10205800C91A7B684846C91ABA697B6A9847002832
:10206800C0F299804FF0000BA84408EB000507F177
:10207800300AB34562D30021BA6908467B6A98479B
:10208800E5E65E464FF0000807F1300098E75E4647
:10209800D84699E7B04697E719F8021B3F4B19F85D
:1020A800015C54F82500984202D33D4B98421DD359
:1020B8003B6923B1F86917F02FFF002890D13B68DE
:1020C800FBB908F1280307F1280208F1010003EB26
:1020D800020C07F1500308F1020853FA80F00CF8DB
:1020E800101C5FFA88F800F8105C79E73B692BB19F
:1020F800F86917F011FF00287FF472AFBB6FDB0798
:1021080009D506F1280307F12802711C9E1806F864
:10211800205CCEB264E7BB6F58077FF561AF08F16A
:10212800280307F1280208F1010103EB020808F867
:10213800105C5FFA81F853E7002068E71BF80A3063
:1021480054F8239087F82F30FB6FFBB133F81B80CE
:102158000121BA697B6A07F12F00984700281ADB2A
:102168000544B8F1000F06D14846FEF76BF900F1B7
:1021780001081FFA88F841464846BA697B6A9847B9
:10218800002808DB05440BF1010B72E7D7F87C80C7
:10219800DEE745465BE6054659E600BFF019020052
:1021A800E01C030004EB020004000001801E020092
:1021B800014B1860704700BFC401002080B5054678
:1021C8000E461746984616F079F803461FF002FCAB
:1021D8000446DFF81890424649F800303946304640
:1021E800A84754F8090002F0CBF800BF0800000027
:1021F8002DE9F047058B04462807904611D402299B
:1022080005F0070540F0CD80204618F068F978B150
:102218000138218B042811D8DFE800F0C3106D8540
:10222800950001290CBF45F0100545F020052583D0
:1022380088F31188BFF36F8FBDE8F08701F0070AB4
:10224800AA4500F0A6800027B9463E46A368002BA1
:1022580000F0BD8041F00801218388F31188BFF3A5
:102268006F8FA168002900F0BB800D68002900F07D
:10227800B780334652462046D1F80480C047002D27
:1022880076D02B6829461D46F0E701F007035A1F50
:10229800012A1BD8002221F00701062B276889B2E2
:1022A800C4E9002209D13B4603E0628B0132628314
:1022B8001B68002BF9D141F002012046218318F058
:1022C8000EF900287BD041F0200177E0042B0AD1D9
:1022D80021F0070189B22046218318F000F910B1D6
:1022E80041F020012183218B01F0070AAA4550D033
:1022F8000027B946AAE7236921F0070141F0060142
:10230800062DD3F8009021832DD1B9F1000F40D0CC
:1023180041F00801218388F31188BFF36F8F2046AD
:102328003949C84729E021F00701236941F0040130
:1023380089B2042DD3F804902183E6D000274FF00A
:10234800040A3E4682E721F00701236941F00501AE
:1023580089B2052DD3F808902183D6D000274FF0F5
:10236800050A3E4672E700274FF0060A3E466DE72B
:102378002B4687E7B9F1000FD1D14FF02003EFF3D7
:10238800118883F31288BFF36F8F238B23F0080320
:102398002383258BEA062ED525F01003238305F029
:1023A80007056669218B002EBFF66FAF00232768EB
:1023B800C4E9003321F0070141F001012183218B99
:1023C8004FF0000901F0070AAA457FF43FAF002F3C
:1023D8009BD041F00801218388F31188BFF36F8FE8
:1023E800002FC7D03D68394633465246204618F07C
:1023F800A2F82F46F4E7AB067FF51AAF25F02003C5
:10240800238305F00705FFE66BA50100044608B520
:102418004FF02002EFF3118382F31288BFF36F8F1E
:102428000FF022F8204601F061FF034817F09BFDEA
:1024380002F01CF9FCE700BFB8EB020010B530B998
:102448000B480C4918F098FB6FF0150010BD836815
:1024580033B90748084918F08FFB6FF00400F5E717
:102468001B6813B1BDE8104018471846EEE700BFD7
:10247800981E0200E1EB0200F2EB020010B530B941
:102488000B480C4918F078FB6FF0150010BD8368F5
:1024980033B90748084918F06FFB6FF00400F5E7F7
:1024A8005B6813B1BDE8104018471846EEE700BF57
:1024B800981E0200E1EB0200F2EB020070B508B1D1
:1024C80001B132B90B480C4918F056FB6FF01500F2
:1024D80070BD84680CB1E56835B90648074918F03D
:1024E8004BFB6FF00400F3E741F8040BE368BDE829
:1024F80070401847981E020010EC0200F2EB020030
:1025080010B5044630B91048104918F035FB6FF083
:10251800150010BD006830B90B480D4918F02CFBA8
:102528006FF00100F5E783680BB11B6933B9064802
:10253800084918F021FB6FF00400EAE76168984742
:102548000028E6D12060E4E7981E02003CEC020077
:102558004DEC0200F2EB020070B51346044630B9A8
:102568001048114918F008FB6FF0150070BD00689D
:1025780030B90C480D4918F0FFFA6FF00100F5E783
:1025880082680AB1956835B90648094918F0F4FA1D
:102598006FF00400EAE70A46AC466168BDE870409F
:1025A800604700BF981E02003CEC02004DEC0200A0
:1025B800F2EB0200034A13680BB95268136000205B
:1025C800704700BFC801002030B50C460E4985B0E1
:1025D8000291D0F8AC110546CDE9003100F1E001D7
:1025E8004FF0FF33204614F0CFFB50B9012384F895
:1025F8006430D5F8A83123B1204605B0BDE8304095
:10260800184705B030BD00BF79AC010038B50C469D
:102618001146054618F02EFB034638B928460449EA
:1026280018F028FB03460020236038BD0120FBE793
:10263800CA1B03002DE9F04F01238146056946684E
:1026480085B005F56B77D7E8EF2F002A03D1C7E8E7
:10265800E13F0029F7D10CBF1A46002240F0B180B3
:10266800B368B16A05F5E4781C1F104618F087FBBB
:1026780084425FD8013A00F09E80B2FA82F24FF0AD
:102688000044D44072682046073222F00302C5F89D
:102698006022B16A18F073FBC5F86402B36A404659
:1026A8006343033323F0030302EB4302230103EBE9
:1026B8004403093323F0030303EBC403C5F858228A
:1026C8001A440832C5F854227368C5F85C42C5F844
:1026D80050323D4BC5E9A963316800F0DFF9044683
:1026E80030BBD9F804A0D9F81090DAE9073409F515
:1026F800307B012B584608BF103C1EF06FFB0023AF
:10270800DAF8240031494FF4806201EB802100930C
:102718005846234615F0F8F909F52C702C491EF097
:1027280003FBDAF8140083685C682CB96FF057046F
:10273800002139E0013298E74B46264ADAF81810AA
:10274800A04704460028F3D1DAF8140083681B690F
:10275800002BEBD00122DAF818109847044600281D
:10276800E6D11D4B2846C5F8A8311C4BC5F8AC313D
:102778001B4B0393D5F810320293D5F80832CDE9F4
:102788000083D5F86832B26AD5F8A81300F04EF97C
:1027980004460028CCD105F1E00014F0A1FB002884
:1027A800C5F8B0030ADB0221384618F098FA20462B
:1027B80005B0BDE8F08F6FF00B04B9E76FF01504B2
:1027C800B6E76FF07704F2E7CFAC0100A84100202C
:1027D800B5AC0100A9AC0100ED2700005DAE010019
:1027E80017AD010013B5044640B100230122CDE91D
:1027F8000032074BD0E9091214F07AFAA36E1B686D
:1028080023B1E06E02B0BDE81040184702B010BD19
:10281800CA1B030013B504460846216901F56B710C
:10282800D1E8AF1F022910D193B1A0B10121CDE9A0
:1028380000311346D0E9091214F05AFA074B9842AE
:1028480008BF6FF00B0002B010BD6FF00F00FAE781
:102858006FF04C00F7E76FF00100F4E72EF8FFFF88
:102868002DE9F74388461546066906F56B73D3E8E4
:10287800AF3F022B5FD1136823B96FF0150003B087
:10288800BDE8F0831B78002BF7D0D6F8A893B9F1F0
:10289800000F33D106F5D8774FF0FF324FF0FF33F2
:1028A800384614F039FF30462A6801A9FFF7AEFE12
:1028B800019C1CB9384618F010FADEE705F1080348
:1028C800A3666B6984F86490E366E46360B1384694
:1028D80018F003FA21463046236E2A68FFF774FE83
:1028E8000020C8F80040CAE72022296804F1400007
:1028F8001EF03EFE384618F0F0F9F1E730460F4971
:1029080018F0B8F904460028B7D005F10803836623
:102918006B69C063C366002380F86430202229688D
:1029280040301EF025FE22460121304600F060F8B6
:102938000028D5D0A1E76FF00F00A0E7CA1B03005D
:1029480010B50C46006900F56B73D3E8AF3F022B56
:102958000FD189B10A4900F52C701EF023FA2046E0
:102968001DF09CFD7022002120461EF062FF002011
:1029780010BD6FF00F00FBE76FF00100F8E700BF34
:10298800382E00202DE9F04F05460E4690460027C8
:10299800D0F8B0A085B0AAF5AE7421463046FDF750
:1029A8003FFDE0B9114BA4F1400B0293DAF8103067
:1029B8003246CDE9008329464FF0FF335846AAF541
:1029C800CE7914F0E1F960B97023012203FB079373
:1029D80083F86420DAF80C300BB158469847703405
:1029E80017B105B0BDE8F08F0127D6E78BAE01001F
:1029F8001FB5144690B18AB1012912D10A4B00F1D2
:102A0800E0010293D0F8AC31403201934FF0FF332C
:102A18002046009314F0B8F904B010BD6FF015000B
:102A2800FAE70020F8E700BF8BAE01002DE9F0437C
:102A380087B00E46DDE90E811446DDE910251F46F4
:102A480030B329B3DFF850C000F1E009002D08BF0A
:102A580065469EB9CDE9034400F5CE742046059637
:102A68001DF041FF03ABCDE900432A463B464146F2
:102A7800484614F05BFA07B0BDE8F08300224146EF
:102A88000E9248462A4607B0BDE8F04314F07ABBD8
:102A98006FF01500EFE700BF8D290000F0B50E4676
:102AA800044689B000286FD001230246C36300237F
:102AB800D0F89810364F403040F80C7C42F8301F60
:102AC800CDE901334FF0FF330093C36D1DF0C9F911
:102AD800304A06AB92E8030083E8030018460FF07B
:102AE80029FC0546D8B904F134000FF005FC054669
:102AF800A8B93946284805AA1DF08FF9054670B9C6
:102B0800059B9A6872B10C33D4F89400C4F8A030CD
:102B180018F0E8F9C4F8D40030B96FF00B0528466E
:102B280009B0F0BD0346EFE7D4F8940018F0DAF9DD
:102B3800C4F8D8000028F0D0D4F88C30D4F8A0100D
:102B4800C4F8A8300423C4F8AC30C4F8C430022355
:102B5800A362124BB4F89420D4F8D470C4F8B81017
:102B6800C4F8D010D4F89010236204F1A403A4F898
:102B7800B020C4F8A470C4F8C010A4F8C820C4F8E1
:102B8800BC00A661E362CAE76FF01505C7E700BF9E
:102B980077EC0200381F020081EC0200EC220200F0
:102BA8002DE9F047044607464FF00109DFF8508049
:102BB80014B93846BDE8F08794FAA4F5B5FA85F556
:102BC80009FA05F32E0108EB05156FEA030A24EA52
:102BD80003042B7B002BEBD058F806301B694BB94C
:102BE8004644736804222846196807EA0A0700F071
:102BF80051FADDE7284698470028D9D1F0E700BF09
:102C0800001F020030B5002289B00F490F481EF09E
:102C1800FAFA002200230024CDE906230E230C4DE6
:102C2800CDE903344FF440722846CDE90144094BFD
:102C38000949009414F0BCFC084928461DF035FFEA
:102C4800204609B030BD00BF692C000030160020B6
:102C580060110020412F0000A845002089EC0200E7
:102C6800014814F007BE00BF4C0900202DE9F047C9
:102C780080461F480F4618F087F90646002830D0CE
:102C880000252846BDE8F087237B73B12368DB68FD
:102C98000BB12046984723681B69D3B9636804229F
:102CA8002046196800F0F6F9013610344C45EBD38C
:102CB800B8F1000FE5D0002DE2D02846FFF770FFED
:102CC8000546002FF7D000214FF4A47015F0DCFA68
:102CD800F1E7204698470028E0D00AFA06F31D439A
:102CE800E2E705464FF0010A024CDFF80C90DDE7F9
:102CF800702E0020001F0200101F0200014B53F825
:102D0800200070472C23020008B5034608462BB163
:102D1800044A136000F072FC002008BD6FF0150033
:102D2800FBE700BFF401002010B5044C237813B969
:102D3800034814F09FFD0123237010BD653F002058
:102D48004C09002010B50446064818F01DF93CB19E
:102D5800054BD3E8EF1F0139C3E8E21F002AF8D179
:102D680010BD00BF682E00206C2E002000200146F8
:102D7800034BD3E8EF0FC3E8E21F002AF9D17047ED
:102D8800682E002070B5FFF7F1FF0546074C084E86
:102D9800B44200D370BD63685B792BB123685B686C
:102DA80013B12946204698471034F1E7001F020066
:102DB800101F020010B5044C0449204617F081FD8D
:102DC800034B1C6010BD00BF380800201823020008
:102DD800602E002008B50023074A4FF40041137005
:102DE800064A07481360074A1360FFF78DFFBDE8DE
:102DF8000840FFF7DFBF00BF663F0020682E0020B5
:102E08008DAF01006C2E00200146002200230148EE
:102E180017F078BD38080020014817F011BE00BF30
:102E280038080020024B0146186817F05BBE00BF47
:102E3800602E0020014817F091BE00BF380800201E
:102E480070B5264B1878002847D0FFF7E5FF0546F0
:102E580070B1234BD3E8EF1F0139C3E8E21F002A02
:102E6800F8D1204C204EB4422DD32846FFF7DAFF84
:102E78001E4B1F4C1B68002B19DD1EF07DF94FF40B
:102E88007A72A0FB020302FB0131C30B43EA414300
:102E9800D4E900209B1A40F2E9324FEAD13161EBC4
:102EA8000001934271F1000101D3FFF76BFFD4E9F0
:102EB800003213F57A7342F10002C4E90032BDE82A
:102EC8007040FFF7B7BF63685B7923B12368294671
:102ED80020461B6898471034C5E770BD653F002041
:102EE8006C2E0020001F0200101F0200682E002018
:102EF8002816002070B50D4D297861B90120FFF71B
:102F0800B5FE0B4C0B4EB44206D3FFF799FF0028D1
:102F1800FBD101232B7070BD63685B791BB12368FB
:102F280020469B6898471034EDE700BF663F0020B5
:102F3800001F0200101F020000212DE9F04708467B
:102F4800FFF794FE044658B340F267684FF0000953
:102F58001EF040FD1B4B1C4A1B58136033B11B4B22
:102F68001B68092B02DD1A4814F084FC0025194F50
:102F7800DFF85CA044B12046FFF712FE044618B9FA
:102F88004FF0FF384FF0FF39FFF75AFF064628B9D0
:102F9800B5B942464B46504614F092FC3546E9E72F
:102FA8004FF0FF384FF0FF39D2E72B689B691BB110
:102FB80000222846114698471035BD42F5D3E8E768
:102FC800054DFAE708000000642E00206C2E002052
:102FD8004C090020101F0200001F020013B51848FA
:102FE80017F0D2FF174B1B787BB14FF02003EFF39C
:102FF800118483F31288BFF36F8FFFF721FF84F3E7
:103008001188BFF36F8F02B010BD0F4B1B68002BE8
:10301800F9D050B9002200230C48CDE900234FF421
:103028000042002315F02EFBEDE70928EBD10748F5
:103038001EF0F5F8064802B0BDE8104014F01ABCBE
:103048006C2E0020663F0020642E002030160020E1
:103058004C09002010B5064B04461B6898472146CA
:10306800A060044817F0CCFCBDE81040FFF7B6BFDD
:10307800F401002038080020044A054B9B1AB1EBE4
:10308800D30F34BF52F8310000207047B01D020042
:10309800001F0200084B10B4C31A44681B11013307
:1030A800237143689A7101224368196043685A7111
:1030B8005DF8044BFFF738BE001F02002DE9F04F02
:1030C8008FB0C1F34A2804AF0D469146B8607B60C3
:1030D8000C0DB8F1000F63D000264FF0040B4FF031
:1030E8000A0A07F11403C7F80C80C7E907667E626D
:1030F8000193CDF808B0CDF800A007F11C033246C3
:103108004846F968FEF77AFEB0F5006F03461CD30F
:103118006C468AB0D9F8041004AB26481A46C3E9AD
:10312800050140F2FF71D9614FF400711984224BF7
:1031380042F8103F4FF4125133462048FFF7BEFFC4
:10314800A5462C37BD46BDE8F08FC0F30A0804F148
:103158001700184420F0070080083B60FFF754FE72
:1031680068F35325044690B13B6800F11001C7E9A4
:10317800083607F11403F961CDE900A3CDF808B0CA
:1031880048460F4AF96807F11C03FEF737FE68F353
:1031980053252A4620467B68B96817F027FFD0E7F1
:1031A80004F1170020F007008008FFF72DFE044601
:1031B800EDE700BF9EEC020004000001A01E020023
:1031C800C9AF01002DE9F04F87B00446DDE9105A78
:1031D800DDE912690F4693469846A6B31021334697
:1031E80052460020CDF80090CDF81490FEF734FC3C
:1031F800014605F117000844144B04F007040BF0CE
:10320800070BE40020F0070003EA412344EA8B148B
:1032180080081C430391FFF7F7FD44EA055405466F
:1032280040B13EB1334652460399CDF80090103074
:10323800FEF712FC434622463946284607B0BDE849
:10324800F04F17F0D3BE3146D3E700BF00FE0F00A2
:103258000EB403B503AB53F8042B0146044801939D
:1032680001F06AFC02B05DF804EB03B0704700BFE0
:1032780007B10100CA0605D48B064CBF02490349B1
:10328800FFF7E6BF704700BFC91B0300C81B030058
:103298002DE9F04F8BB09B46DDE918769DF8543048
:1032A80004460593DDE916930693059B0D4608929F
:1032B800002B00F0878006F00103099306F008034D
:1032C800079317F07BFE06F0020A0246002849D051
:1032D80020468449FFF7BCFF8046BAF1000F08D0AA
:1032E80016F0440F40D12A4620467F49FFF7B0FF29
:1032F8008044099B5BB17D4B059A204653F82220F8
:103308007B4B7C49002A08BF1A46FFF7A1FF079BA1
:10331800002B55D0784B059A204653F82220774940
:10332800FFF796FF0546089B2BB11A4620467449BD
:10333800FFF78EFF0544BBF1000F05D05A46204623
:103348007049FFF785FF05444544B9F1000F48D19E
:10335800002F4ED1F30700F1BF8031462046FFF71A
:1033680089FFB3E08046B8E7674B18680028BFD0EC
:10337800664B4FF47A7E1B684FF46162B5FBF3F538
:10338800B5FBF0F300FB13550EFB05F5B3FBF2FAA2
:10339800B5FBF0FC3C2102FB1A3200FB1C55B2FBCA
:1033A800F1F30EFB05F5B5FBF0F501FB1322204602
:1033B8000092CDE901C552465549FFF749FF97E705
:1033C800079DB0E7BBF1010F06D1B9F1000F64D139
:1033D800002F7BD000250CE0B9F1000FF8D04D4844
:1033E8005CE04D484B4622464C4916F064FD002FE0
:1033F80068D0DFF83891DFF838A1102F3146204621
:10340800B8464FF0000B28BF4FF01008FFF732FF07
:103418005D4545DC069B514620461A78FFF718FFA4
:103428004FF0010B1BF0070F03D149462046FFF769
:103438000FFFD8453BD9069B5146204613F80B2071
:10344800FFF706FF0BF1010BBBF1100FEAD14FF0AC
:10345800000B20463249FFF7FBFE5A46069B2046E2
:103468009A5CA2F120015F2928BF2E222D49FFF77F
:10347800EFFE0BF1010BBBF1100F1DD01BF0070F76
:1034880003D149462046FFF7E3FED8455A46E5D81A
:1034980049462046FFF7DCFEEBE71F48059DA1E7FC
:1034A80049462046FFF7D4FE0BF1010BB0E7204652
:1034B8001D49FFF7CDFEC5E7069BB7EB0807434458
:1034C80006939AD1059B002B7FF444AF20460BB09E
:1034D800BDE8F04F17F006BE2046054A0549FFF73C
:1034E800B7FE3AE7E2EC0200E6EC02003C230200F9
:1034F800DDEC020091FA0200502302000BED0200FD
:1035080011ED020015ED0200782E0020742E002027
:10351800EFEC020035B1010007B10100414B00009A
:1035280020ED020022ED0200921B0300941B030011
:103538001AED02002DE9F0410F884B6805460C464C
:1035480090468E6886B0C7F382175BB1144A9B1AFF
:1035580043F3CF01002920DB2078C0F3C200FFF736
:103568008BFD0346214651F8102B6088C2F34A228E
:10357800002A01EB020408BF00210022C0F30B104F
:10358800CDE90408CDE90214284631460197009296
:10359800FFF77EFE06B0BDE8F0810023E2E700BF3A
:1035A800B01D020042F20F7373B58B4228BF0B4661
:1035B80005680446052168460D4A15F0DDFA0646F9
:1035C800636828460B225B680A4917F07EFD63682A
:1035D8003246694628465B6817F077FD63681B2208
:1035E80028465B68044917F070FD02B070BD00BF43
:1035F8006412030041ED020025ED020000210123C1
:10360800064A904206D8064A01B901231360054BC1
:1036180018607047012140085B00F2E740420F0044
:10362800742E0020782E0020F8B50D460446064F6B
:103638004618B44201D12846F8BD14F8011BBB68EE
:1036480001485B689847F4E7EC1A0200014B0360F5
:103658000020704798230200014B1868704700BF8C
:10366800000200200822F0B589B017F04CFFCB6AA1
:10367800002703930B6B0C4604934B6B064605938C
:103688008B6BCDE901770693CB6B009707931346B5
:103698006A461146104617F045FE31460546304643
:1036A80017F040FE216B05440391616B10460491AD
:1036B800A16B0591E16BCDE90617114617F032FEB3
:1036C80031460544304617F02DFE0544206ACDE901
:1036D80004770090606A03970190A06A0290A06B3B
:1036E8000690E06B0790304617F01CFE0544606AB0
:1036F800D4F834C00090A06ACDF80CC00190E06AFC
:103708000290A06B0490E06BCDE9050C206A07904D
:10371800304617F007FE0544E06ACDE904770090CB
:10372800206B03970190606B0290206A0690A06A54
:103738000790304617F01AFF236B2D1A0093636B1E
:1037480030460193A36B0293E36B0393636A06937A
:10375800E36A0793082317F009FF636B2D1A009398
:10376800A36B30460193E36B0293236A0393636A66
:103778000493A36ACDE90537236B0793082317F051
:10378800F5FEA36B2D1A0093E36B3046CDE90137A4
:10379800636A0393A36A0493E36A0593636B0793CD
:1037A800082317F0E3FE2D1A10D40D4C35B9082262
:1037B8003146204617F0B3FE01280FD008232246D1
:1037C8003146304617F0D2FE2D1AEFE7044A082397
:1037D8003146304617F0A6FD2D18F8D409B0F0BDD3
:1037E8009C2302000449431E0F3013F8012F8A5C02
:1037F80083421A70F9D1704787ED0200F0B5074689
:10380800264E8DB001AD0C460FCE0FC50FCE0FC59D
:1038180096E8070085E807003846002F39D0002CC5
:1038280039D0381F0246214610344B780D781B04D6
:1038380043EA0563CD7804312B4311F8025C8C42CE
:1038480043EA052342F8043FEFD10421144C8A07C8
:10385800036916D1C3F30742A55C1A0EA25C42EABB
:103868000562C3F30725655DDBB2E35C42EA054206
:1038780042EA032221F0030330336B4453F82C3C13
:10388800534050F8042F013153402C290361DED1F5
:1038980001200DB0F0BD2046FBE700BF401F02002D
:1038A80087ED02002DE9F04F002703689DB00393D0
:1038B8004368DFF8B0A104938368DDE90346059304
:1038C800C36806930369DDE905BE07934369089356
:1038D8008369DDE9072C0993C36998460A93099B14
:1038E8000193CD590CAB2DBA5AF8049BDD514FEA20
:1038F800F223A94483EAB213019D83EA72634B441D
:1039080025EA020502EA0C0985EA09052B44434425
:1039180086EA0B054FEA743888EAB408254006EAB7
:103928000B0985EA090588EAB458A844043703EB6B
:103938000E05402F4344DE46DDF8048000937FD116
:103948004FF0100A464B0B9351460AF1010A1CAB83
:103958000AF00F0703EB870757F8403C01F00F09FF
:103968004FEAB34801F10E070931029388EAF318C8
:1039780001F00F011CAB03EB810103EB890907F090
:103988000F0751F8401C03EB870759F8403C57F8DC
:10399800407C1944029B4FEAF74E88EAD3088EEA26
:1039A800774E8EEA972E414471444FEAF52E0B9BD1
:1039B80005EA02088EEAB51E2CEA05078EEA756E3E
:1039C80087EA0807774453F804EF49F8401C77441E
:1039D8000F440B930199009B39444FEA733E84EAE4
:1039E80006078EEAB30E1F4004EA06088EEAB35EA5
:1039F80087EA08077744BAF1400F01EB0B0E0F4432
:103A0800B346CDF804C023D1039B00993B4403601F
:103A1800049B0B444360059B23448360069B33440B
:103A2800C360079B73440361089B2B444361099B54
:103A3800134483610A9B6344C3611DB0BDE8F08FE2
:103A4800B346CDF804C026469446009C2A4648E76B
:103A5800944626462A46009C7546009774E700BFA0
:103A6800842402004824020010B50446C8B170221C
:103A7800002117F09EFB0B4B0B4A0C49C4E90023AD
:103A88000B4B0C48C4E902130B4BC4E90403012097
:103A98000A4BA36103F17453A3F52303A3F69243DE
:103AA800E36110BD85AE67BB67E6096A72F36E3CD9
:103AB8003AF54FA57F520E518C68059BABD9831FF1
:103AC800014814F019BF00BF4825020038B5044664
:103AD80018B90F4B0F485B6898476168B1F5683FA4
:103AE80010D0B1F5680F0DD00B4DA9420AD011F4D2
:103AF8006861206807D0014608481CF0AAFF002327
:103B08002360656038BD14221DF093FEF9E700BFFD
:103B18000C07002087EE02002C5F5CA9A833002068
:103B280008B560B34368B3F5683F0ED0B3F5680FC6
:103B380018D0144A934220D000684FF0FF324FF05B
:103B4800FF3313F0E9FD58B115E001220368D3E80B
:103B5800EF1F002903D1C3E8E02F0028F7D10AD1CD
:103B6800002008BD0368084A1B7803F5807352F8E3
:103B78002330002BF4D00548F3E70548F1E76FF44C
:103B8800E040EEE72C5F5CA900000350E98FFFFFDF
:103B9800EA8FFFFF08B520B34368B3F5683F09D043
:103BA800B3F5680F13D0114A93421DD0006813F083
:103BB80077FD14E000220368D3E8EF1F012903D141
:103BC800C3E8E02F0028F7D109D0094808BD002133
:103BD8000368084A1B7803F5807342F82310002015
:103BE800F4E76FF4E040F1E70348EFE72C5F5CA9E6
:103BF800E98FFFFF00000350EA8FFFFF10B504466E
:103C080018B91D4B1D485B6898476368B3F5683F52
:103C18002FD0B3F5680F2CD0194A934219D12368D5
:103C280003BB4FF0FF324FF0FF332146154813F026
:103C380053FC08B923681BB90F4B13485B689847B6
:103C48001422002120681DF0F4FD4FF468636360BE
:103C580008E0B3F5683F0DD83A2B03D040F6BA62B6
:103C68009342DED120681CF03BFF636843F03A03BF
:103C7800636010BD054AF3E70C07002087EE0200D9
:103C88002C5F5CA9A8330020ADEE02003A00003A90
:103C980008B506494023142205481CF0CCFEBDE8AF
:103CA80008400449044814F099BE00BFA82E00201B
:103CB800A833002050250200642502002DE9F84FA2
:103CC80080460C4600AF002965D0D1E90012E946CC
:103CD8008AB0A3686D464FF0050A2E463148C5E9FB
:103CE8000723C5E9050146F810AF002332464FF413
:103CF80021512D48FFF7E2F9D4E90312CD46636953
:103D0800AD462A48C5E90723C5E90501C5F810A04D
:103D1800002332464FF421512348FFF7CFF9CD460F
:103D2800E3690121224A204817F0B9F926460025FF
:103D38004FF00A0ADFF884B0E946D6E908E0D6E988
:103D48000A138EB06A46C2F81CE005F1010EC2E9FA
:103D580008E0A81CC2E90A01E91CC2E905B5C2E9E4
:103D68000C1342F810AF002345F240010E48043509
:103D7800FFF7A4F9102DCD4606F11006DCD1236E0D
:103D880001210C4A084817F08AF9A36901210A4A57
:103D9800054817F084F92146404613F009FABD4654
:103DA800BDE8F88FDAEE0200E01E020009EF02001B
:103DB80038EF02008AEF020099EF020047EF020095
:103DC80030BFFFF7FDBF00BF114B124A2DE9F0418C
:103DD800D518013DB5FBF3F5DFF844805D430E4B84
:103DE800074608EB0304013CB4FBF3F403FB04545B
:103DF8000E1B304609491DF0F5FC7019424600219A
:103E0800083E1DF016FD7E6704F10800BDE8F0814C
:103E1800010000000000000004000000101F020064
:103E280004000000044B99689869884203D003494C
:103E38004FF080520A607047D43B002004ED00E048
:103E480070B52A4C06460D4629482A4918F0EEFC5A
:103E5800A36ADB0647D52648274918F0E7FC112056
:103E6800A36A1C0704D52248244918F0DFFC122055
:103E78001E4CA36A990712D521491D4818F0D6FC93
:103E8800636BA26A120609D501211E4A184817F069
:103E980006F91EB1A36A23F08003A3621320134C12
:103EA800A36ADE0704D51248174918F0BFFC14208E
:103EB800A36A9C0604D50E48144918F0B7FC1520CF
:103EC8000A4B9A6AD10658BF9A6A9A6A920642BF02
:103ED8005A6A22F400525A629A6A42F0FF029A62BF
:103EE80000232B7070BD1020BAE700BF00ED00E082
:103EF800E01E0200C7EF0200DDEF020010F0020032
:103F080023F002003BF0020051F0020070F00200C2
:103F180010B5244C2449254818F088FCA36A990157
:103F28003ED52248224918F081FC1E20A36ADA01F6
:103F380004D51E481F4918F079FC1F20194CA36AA4
:103F4800DB0204D519481C4918F070FC0220A36A4A
:103F58001C0304D51548194918F068FC2120114C98
:103F6800A36A590304D51148154918F05FFC2220AB
:103F7800A36A9A0304D50D48124918F057FC232068
:103F8800084CA36ADB0304D508480F4918F04EFC17
:103F98002420A36A6FEA03436FEA1343A36210BDA8
:103FA8001D20C3E700ED00E09FF00200E01E0200C4
:103FB800B7F00200CAF00200E4F002000EF10200BD
:103FC8002CF1020051F102006BF1020070B5294C8E
:103FD80006460D462848294918F028FCA36AD90442
:103FE8003CD52548264918F021FC1720A36A1A0554
:103FF80004D52148234918F019FC18201D4CA36A40
:104008009B0512D51C48204918F010FCA36BA26A26
:10401800100409D501211D4A174817F040F81EB1B0
:10402800A36A23F40043A3621920124CA36A59051A
:1040380004D51148164918F0F9FB1A20A36ADA05C5
:104048000ED50D48134918F0F1FB1B20094A936A55
:1040580043F47F43936200232B7070BD1620C5E79D
:10406800A36A9B04F2D504480B4918F0DFFB1C2017
:10407800ECE700BF00ED00E0E01E020096F1020050
:10408800ACF1020010F00200BDF10200D6F102000E
:10409800EBF1020006F2020070F002002DE9F04197
:1040A8009CB0624B0546D3F80480002600AFC8F3E5
:1040B800080486F31188BFF36F8F02F07F43B3F1D2
:1040C8007F4F07D102F00C03082B12D158495948E9
:1040D80018F0ACFB002635460023FB71E31E092BC4
:1040E80000F28380DFE803F00A797C7681818181A0
:1040F800817F10074CBF0D460126EDE74E494D481C
:1041080018F094FB0023494CFB71E36A9A0705D524
:104118004A49484818F08AFB002432E0E36A002B39
:1041280001DA4749F5E7E36A5B00F5D545494148B7
:1041380018F07CFB6369AA6943F480736361BFF379
:104148004F8FBFF36F8F636932F8022C23F48073AB
:104158006361BFF34F8FBFF36F8F4DF602739A42BF
:1041680008D0A36ADBB243B30120F91DFFF768FE4C
:10417800044606E02B680121334A2E4816F08FFFCB
:104188002C68FB79ABB96822294607F108001DF0B5
:1041980029FB7B6A002E44D0C3F3080222B96FEAD8
:1041A80053236FEA43237B62204607F10801FFF798
:1041B80085FD7037BD46BDE8F081A36A13F47F4FD3
:1041C80004D00120F91DFFF701FFD1E7A36AB3F579
:1041D800803FA1D3FFF79CFECAE70020F91DC5E781
:1041E8000020F91DEFE7194993E7194A18F4F87FF9
:1041F800E8468AB0174B18BF13466A461649103C62
:10420800C2E905134FF400731384144BD46142F8C8
:10421800103F00234FF411510648FEF74FFFC546E3
:104228007AE723F4FF7323F00103BCE700ED00E015
:104238004CF20200E01E020077F202008EF2020049
:10424800AFF20200BDF20200DCF20200F8F2020056
:1042580033F202001EF202001CF302000400000107
:10426800044B5A6942F010025A615A6942F480625A
:104278005A61704700ED00E0EFF30880EFF3098121
:1042880001B57246FFF70AFF01BD00BF002080F3A9
:104298001488BFF36F8F002080F30A8880F30B889F
:1042A80000F0F6FD00200E490860BFF34F8F0D485F
:1042B80080F3088800F03EF8202080F311880A482F
:1042C8004FF40061401880F30988EFF3148002214D
:1042D800084380F31488BFF36F8F00F027F90000BC
:1042E80094ED00E090670020505A0020BFF34F8FF4
:1042F8000549064BCA6802F4E0621343CB60BFF37A
:104308004F8F00BFFDE700BF00ED00E00400FA0595
:10431800002318460649D1F89020C2F30722934299
:1043280000DB7047C1F89830C1F8A0000133F6E708
:1043380000ED00E010B572B6002484F31388FFF78F
:10434800E7FF23464FF0FF300C4A03F12001013309
:10435800102B42F82100F8D100234FF0FF30074A14
:1043680003F160010133102B42F82100F8D162B645
:10437800BFF34F8FBFF36F8F10BD00BF00E100E0A8
:10438800084B9B6883420BD1EFF3058343B1064B7F
:104398005A6842F080525A605A6A22F400425A62BD
:1043A8001CF08CBED43B002000ED00E06FF00A0149
:1043B800084A9368D967084998674B6843F080535F
:1043C8004B60002383F31188BFF36F8F9368D86F16
:1043D800704700BFD43B002000ED00E025498A6803
:1043E80082F8C1E04FF030001044EFF3098C80E808
:1043F800F01F1EF0100F03D102F1800080EC108A2C
:10440800202080F31288BFF36F8F1B4F4FF0006698
:104418008A698A603E604FF0740414192068174C4A
:10442800206092F9C1E0906F0023936780F31188B0
:104438001EF0100F03D00023E1EE103A03E002F162
:10444800800090EC108AEFF3148323F0040383F3C5
:104458001488BFF36F8F02F1300090E8F01F8CF3DF
:10446800098802F1000004B518F0E8F9BDE8044035
:1044780070470000D43B002004ED00E0C433002066
:104488001EF0040F0CBFEFF30880EFF30980816979
:1044980011F8021C0229FFD001B518F0BCF901BDC2
:1044A80040B2002807DB01234109034A00F01F003E
:1044B800834042F82130704700E100E040B2002814
:1044C8000CDB01220649430900F01F00824020331B
:1044D80041F82320BFF34F8FBFF36F8F704700BFA2
:1044E80000E100E0054B420953F82220012300F0C7
:1044F8001F0003FA00F01040704700BF00E100E021
:1045080040B2002801F10101ACBF00F16040064B48
:104518004FEA4111C9B2ABBF00F5614000F00F008E
:1045280080F800131954704714ED00E0144A08B5D8
:10453800144B22F07F029A60BFF34F8FBFF36F8F47
:10454800D3F8882022F47002C3F88820D3F8882092
:1045580042F4A002C3F888204FF04042C3F8342246
:10456800BFF34F8FBFF36F8F0023E1EE103A12F0C5
:10457800D3FE13F0BBFE00F0AFF812F017FF00BF38
:104588000000000000ED00E042F8203C009B0D49CF
:1045980042F81C3C019B21F0010142F8183C029BA7
:1045A80042F8081C42F8143C4FF0807342F8043C6F
:1045B800002383674FF47D43203A0265C0F8C0307A
:1045C800704700BFC5210000114B9B6883421BD177
:1045D800EFF30580C0B94FF02002EFF3118182F3A9
:1045E8001288BFF36F8F1A7B22F002021A73EFF35F
:1045F800148323F0040383F31488BFF36F8F81F3CC
:104608001188BFF36F8F70476FF01500704700BFB8
:10461800D43B00200023E1EE103AEFF3148323F09B
:10462800040383F31488BFF36F8FBFF36F8F0A4BB4
:10463800446F9860094B1C60436E83F30B881046E7
:1046480081F30988002163B681F31188BFF36F8F66
:1046580000220023FDF7B2FDD43B0020C433002024
:10466800014910220A60704710ED00E072B6404020
:1046780080F31188BFF36F8F01B500F007FB0028A6
:104688000AD0BFF34F8F30BF00BF00BF00BF00BFCD
:1046980000BF00BF00BF00BFBDE8014062B6BFF366
:1046A8006F8F704772B6494081F3118801B500F0E9
:1046B800EDFA00280AD0BFF34F8F20BF00BF00BF1C
:1046C80000BF00BF00BF00BF00BF00BFBDE8014082
:1046D80080F3118862B67047002320210348C2186E
:1046E8000133452B82F80013F9D1704700E100E04F
:1046F80001B5EFF30580A0F110004FEAC0000449AE
:10470800014409C99847BDE801400249084700002B
:10471800281B02002D3E00001FB5094C094A2346FC
:104728000121094800F00AF900230393074B0121EE
:10473800E41A01A80193029400F00AF904B010BD2C
:10474800000007200000002074250200A00C0020B3
:1047580010B50C7A0B6804F01F0223F01F031A43EC
:10476800CB68640923F01F03054943EA440343F077
:104778000103C1F89800C1F89C20C1F8A03010BD11
:1047880000ED00E0072810B508D901210346054AC5
:10479800054816F084FC6FF0150010BDFFF7D8FF30
:1047A800FBE700BF33F30200C01E02002DE9F04F03
:1047B8008946144606464FF00008514D85B0C84555
:1047C80027DAD6F804A0BAF1000F44D0BAF11F0FC7
:1047D80017D91AF01F0F14D1D6F800B01BF01F0F0D
:1047E8000FD1584618F02EF807460AEB0B0001388F
:1047F80018F028F8874210D06FF01507414A3B4659
:1048080001E04346404A0121404816F048FC6FF059
:104818001504204605B0BDE8F08F17F1160FEDD04E
:10482800BC42EBDDC5F89870D5F89C10C5F89870B7
:10483800D5F8A03021F01F0143F01F0BD6E9003254
:104848001A44994202F1FF3A1DD1D34507D13146A6
:10485800F8B218F000F808F101080C36AFE7314655
:10486800C5F89870D5F89C3022F01F0203F01F039A
:104878001343C5F89C30E0B217F0EDFF10F1160FA6
:10488800C5D0441CE7E7C5F89870D5F8A020013BCF
:1048980023F01F0302F01F021343D3453146E0B251
:1048A800C5F8A030E8D017F0D6FF10F1160FAED03B
:1048B800C5F89870D5F89C209DF808300BF1FF3B9F
:1048C80062F304038DF80830D5F8A0309DF808206D
:1048D8005B0863F347128DF80820D6E900321344C9
:1048E800009323F01F035B44A3EB0A03013023F07A
:1048F8001F036946C0B20393FFF744FFBEE700BF3A
:1049080000ED00E07CF3020059F30200C01E020033
:104918000522044BC3F89420BFF34F8FBFF36F8F6A
:10492800704700BF00ED00E0BFF35F8F0022024B2D
:10493800C3F89420704700BF00ED00E010B5034CA9
:104948002278FFF733FF207010BD00BF683F0020BA
:104958002DE9F74F294D8A4606464FF00008AB4629
:10496800274FD0451BDAD6F80490B9F1000F3FD095
:1049780031680846019117F065FF0199044609EB73
:104988000100013817F05EFF84424FF014021D4BFE
:1049980008D002FB08F36FF015024BF8032003B0B0
:1049A800BDE8F08F14F1160F2C60F8D01978A142E9
:1049B800F5DD02FB08B0C7F89840C7F89840D7F86B
:1049C8009C4000F10801007B64F304000871D7F8EB
:1049D800A0000C79400860F347140C71D7F89C10BC
:1049E80021F01F016960D7F8A01021F01F0129618B
:1049F80008F1010814350C36B3E700BFC8330020AE
:104A080000ED00E0683F0020F0B53A4D87B02C6813
:104A1800082C6CD80020FFF787FF374B374AC3F8BC
:104A2800C02084420DD1364D01A82C70FEF70EFE31
:104A380000240646334FA6420AD1FFF769FF00203B
:104A480053E0696801EB0011FFF782FE0130E8E7E7
:104A58000199200101EB0413DA683A40B2F5001F0E
:104A680022D0B2F5800F2CD0B2F5801F36D15A680B
:104A78009B680958013B22F01F000344012084462B
:104A880023F01F0340EA4C10CDE902218DF81000F5
:104A980002A928780593FFF775FE002823DB2B78F9
:104AA800013401332B70C6E75A689B680958013BEB
:104AB80022F01F0003444FF0020C012023F01F03D3
:104AC800E0E75A689B680958013B22F01F0003443D
:104AD8004FF0000C062023F01F03D3E701210A4AF8
:104AE8000A4816F0D3FA6FF0150007B0F0BD4FF082
:104AF800FF30FAE78025020000ED00E0AAFF44003D
:104B0800683F00200000F0FF9FF30200C01E020073
:104B180008B5024B1B689847002008BDDC3300200D
:104B2800034B044A1860937843F00203937070476C
:104B3800DC33002024020020F0B587B007460E467B
:104B480014460021102268461D461CF072FE0223FE
:104B58008DF80230054B2A4621466846CDE9047691
:104B6800019314F0CFF807B0F0BD00BF91C8010061
:104B780008B50649064821F00701C1F1005202F5BF
:104B8800E02215F054FC002008BD00BFF3B200205D
:104B9800E033002000F01F0240090DD001280DD19C
:104BA800094B03EB8203D3F8002222F0E04242EAE9
:104BB8000171C3F800127047044BF2E700238032FA
:104BC80053F82230FFDE00BF0028845000258450AF
:104BD80038B50124134B144DC3F8004502230321B3
:104BE800C5F8D0360020FFF7D5FF20460321FFF790
:104BF800D1FFC5F804472146C5F804492120C5F866
:104C0800004BFFF7C7FF21462020FFF7C3FF2146CF
:104C18000B20FFF7BFFF21460A20FFF7BBFF00204C
:104C280038BD00BF001000500040005007B50DF11E
:104C380007001AF0BDFF114B98421CD14FF4806257
:104C48000F4B1049C3F8B8254FF40062C3F83C2550
:104C58009DF807001AF098FF0B499DF807001AF015
:104C68008EFF01209DF8073098400CF05FFD002072
:104C780003B05DF804FB6FF00B00F9E70000AD0B23
:104C880000A002502CA0025028A10250052370B5A4
:104C9800144D154E2C780134B4FBF3F303EB830366
:104CA800E41A1AF05AFF114A137823B156F824303F
:104CB800C01A072814D94FF05023D3F8141141B162
:104CC8000021C3F81411D3F814312C700CB9012346
:104CD80013702C781AF041FF46F82400012070BDAB
:104CE8000020FCE76A3F0020EC330020693F0020E9
:104CF80048B1054B054A1B68B3FBF2F35843044B14
:104D080043F00103184770471005002040420F0088
:104D18000020020070B5049CC4F3072630460CF04E
:104D280029FAE5B2014628461AF03AFF0022012086
:104D3800074BA40B04F0FC041A51A8400CF0FCFC2F
:104D480030460CF04BFB2846BDE870400CF0E8BD3F
:104D580080A0025073B501A80CF0DCFD264B9842E8
:104D680047D10CF01DFB041E0ADA9DF804000CF074
:104D7800D7FD01212346214A214816F090F935E054
:104D880040F607031F4D8DF80540AE68ADF80630B4
:104D98007468019B14B96FF05704EAE708212846A4
:104DA800194AA047041EE4DB3369002BF3D0012223
:104DB800082128469847041EDBDB01209DF80430B3
:104DC80098400CF0B3FC9DF805009DF804509DF840
:104DD80007601AF0ADFE014628461AF0D5FE0B4BC7
:104DE800B60045F000459D51002CC2D1204602B0C6
:104DF80070BD6FF01204BCE70000AD0BD4F30200E5
:104E0800F01E0200001B0200194E000080A1025093
:104E18002DE9F341144683681B690BB100229847BA
:104E2800C4F3072630460CF0ADF9054630461AF0B3
:104E38007FFE4FF00008E7B2014638461AF0B4FE8C
:104E4800104B220E920043F8028030460CF092F983
:104E58000D4A4FEA943C0CF0FC0C47F0004342F832
:104E68000C30014638461AF08AFE084B05F132022A
:104E7800009330464346019452001AF062FE02B095
:104E8800BDE8F08180A1025080A002501D4D0000B5
:104E98000CF024BB1022174B70B5C3F840244FF414
:104EA8007F03D3F83021D3F83431072A1BD1023BD2
:104EB800032B02D8104AD35CABB14FF05024012623
:104EC80000250520C4F81866C4F814561AF055FED3
:104ED8003046C4F814661AF050FEC4F81456C4F8E4
:104EE8001856002070BD4FF050230022C3F8142636
:104EF800F7E700BF0030005005F402000E4B4029D0
:104F080028BF402170B51D460C4C4618B04203F12D
:104F1800020304D1002305F81130074870BD027858
:104F28001209A25C03F8022C10F8012B02F00F0200
:104F3800A25C03F8012CE9E7893F00203CF4020059
:104F480030B503788BB0044607AD032B21D8DFE8D2
:104F580003F0021A1C1E12492846FBF76BFA059546
:104F680063781E210493A3780E4A0393E3780E48CE
:104F780002932379019363790093A37913F0FCFDDD
:104F880009480BB030BD0949E6E70949E4E7094992
:104F9800E2E70A212846084A13F0EEFDDFE700BFE2
:104FA80003E3020025E302006B3F00200AE302004E
:104FB80011E302001BE302001CE20200F8B5564EA2
:104FC800D6E8AF4F14F0010451D0544F544C554D0E
:104FD8003A462146544816F0FEF8B0BB0121534A20
:104FE800534816F053F81F274FF0FF324FF0FF33A6
:104FF800012000F0ADF900F10C0502210446284615
:105008001AF07DFB3E23037042230121437028469A
:105018001AF075FB08234121037028461AF06FFB2C
:10502800054600F8017BCFB1402200211CF001FCAD
:10503800D6E8EF3F23F00103C6E8E23F002AF7D1A4
:105048002046BDE8F84001F061BB202229462046F1
:105058001CF06CFA0028BBD00027C5E7324917F0CE
:105068006BFC203105F1210017F066FCE0E7D6E87B
:10507800AF3F9B074FD529492B4816F069FF031E00
:1050880033DA01212B4A2A4816F009F84FF0FF328B
:105098004FF0FF33012000F05BF900F10C0702210B
:1050A800054638461AF02BFB3E23037022230121C4
:1050B800437038461AF023FB092321210370384630
:1050C8001AF01DFB03460130FCB91F22FF211A709C
:1050D80020221CF0AEFBD6E8EF3F23F00203C6E81F
:1050E800E23F002AF7D12846ABE7D6E8AF3F0C49A4
:1050F8000C4813F0040F01F12002084B18BF0146B9
:10510800104616F0B5F80446C0E7002206491A70A2
:1051180017F012FCDFE7F8BD00340020A8250200D4
:105128000A4000209EF402002A40002054F40200A5
:10513800281E02007DF4020070B506460D461A4C82
:10514800D4E8AF3FDA0701D50C2070BD012929D872
:10515800D4E8EF3F43F00202C4E8E12F0029F7D179
:105168009B07F1D43146114817F0E6FB104806F1C9
:10517800200117F0E1FB65B1D4E8EF3F43F00403E9
:10518800C4E8E23F002AF7D10A4800F09FF800205F
:10519800DBE7D4E8EF3F23F00403C4E8E23F002A4A
:1051A800F2D0F6E71220D0E7003400202A40002091
:1051B8004A4000203402002070B5067E044676B9C5
:1051C80042F22602C3681D8895423ED00FD842F2AB
:1051D8000102954248D042F225039D4213D0274B45
:1051E8002046BDE87040D3F834315B69184742F275
:1051F8005E039D42F3D103210C301AF0CBFAE0682C
:1052080090F8401027E003210C301AF0C3FA20462A
:105218000AF0B0FE1A4BD3E8AF2F920707D50C2639
:10522800314642F2250017F063FB002070BDD3E839
:10523800EF2F42F00101C3E8E01F0028F7D1D307A0
:10524800EDD4104800F042F8EAE703210C301AF0D8
:10525800A1FA3146E068FFF76FFF064620460AF0DC
:1052680089FE31462846DEE7DA7802F07F02DA70F6
:105278001A7922F001021A71B1E700BF300000204C
:10528800003400203402002030B50024094D0A4BB8
:1052980085B02846029303941BF0A0FD02AB284674
:1052A80000934FF4A3620A23044912F02DFC204610
:1052B80005B030BD68160020C9F40200A8480020D7
:1052C8000146014812F096BC6816002001460148C4
:1052D8001BF057BD68160020037830B5012B13D09A
:1052E800022B27D07BB90A46184B03F1100453F858
:1052F800045BA34242F8045BF9D11B78137043881E
:105308004B731B0A8B7330BD0A46104B03F1100414
:1053180053F8045BA34242F8045BF9D11B7813707D
:105328004368C3F307224B731B0CCB731B0A8A73A6
:105338000B74E8E700F1100350F8042B984241F889
:10534800042BF9D103780B70DDE700BFD2F402001B
:1053580038B50546052D1046194603D1BDE8384035
:1053680008F02EBB012D0CBF064807481AF058F963
:10537800044620B101210C301AF0BDF925762046EB
:1053880038BD00BF680B0020E40A00200246002058
:1053980070B50B460A49D1E8EF4FC1E8E50F002D7B
:1053A800F9D124B9BDE870400120FFF7D1BF012130
:1053B8002082217604F10C001AF09DF9204670BD78
:1053C8004001002070B504460F2C0D4610461946C2
:1053D80005D80D2C0DD9BDE87040FFF7D7BF132CA9
:1053E80007D10C481AF01CF9044638B900242046A5
:1053F80070BD02460B4645B10748F3E701210C3062
:105408001AF079F901232376F1E70120BDE870400D
:10541800FFF79EBF700C00203C0B0020F0B505463E
:105428000E46174685B0AB88012B0ED928461AF0D0
:10543800C1F9044648B1AB88984208D902210093C3
:105448000D4A03460D4815F034FE05B0F0BD284658
:105458001AF0B0F92B688DF80800013C394602A80B
:105468008DF809400393B0470028EED0214628461E
:105478001AF090F9D7E700BFE3F40200001E02001B
:10548800C36802211B78024A024817F00BBB00BF11
:105498000EF50200181E020038B5C368B3F80140C3
:1054A8001B786BB90F21204604F096F8054640B9E1
:1054B800084B1A8822B96FEA04506FEA1050188016
:1054C80038BD012103F084FF2846BDE8384018F0B4
:1054D80039B800BF2C3F00202DE9F041C5682E786F
:1054E800CEB9B5F801700F21384604F075F80446B6
:1054F80038B93B46BDE8F0410121084A084817F091
:10550800D1BAEB783146037303F062FF2046BDE859
:10551800F04118F017B8BDE8F08100BF36F5020079
:10552800181E020010B5C3680121B3F801402046D7
:1055380004F052F838B92346BDE810400121044A66
:10554800044817F0AFBABDE8104017F0FBBF00BF22
:105558005CF50200181E020010B5C36801211C8802
:10556800204604F039F838B92346BDE81040012137
:10557800034A044817F096BABDE8104017F0E2BF96
:105588005CF50200181E0200012110B50C301AF05B
:1055980009F9BDE8104003780121024A024817F0D2
:1055A80081BA00BF80F50200181E0200014610B53E
:1055B80008481AF03CF8084908481BF0E2FB031EAB
:1055C80006DABDE810400121054A064817F06ABA14
:1055D80010BD00BF44010020A802002018180020B8
:1055E800A2F50200181E02000121024A024817F023
:1055F80057BA00BFBFF50200181E02000B46B0B52F
:105608000D8A00AF04462946D868FFF777FC8AB0B0
:105618006A46094BC2E90750C2E9053440F2024321
:105628009384064B4FF43251054842F8103F17F067
:1056380052FABD46B0BD00BFD9F502000500000111
:10564800181E020037B502EBC303934204D103B01E
:10565800BDE83040FFF7D2BF144614F8085B854216
:1056680011D10B8A54789C4207D901210090074A2E
:10567800074815F01EFD03B030BD0846536803B057
:10568800BDE8304018472246DFE700BFFBF50200BF
:10569800181E020010B5012104460C301AF082F8D9
:1056A8002146BDE810401623014A0078FFF7CABF1B
:1056B8002827020070B5C5680121B5F80160304699
:1056C80003F08AFF044638B93346BDE8704001212B
:1056D8000B4A0C4817F0E6B92B783BB9D5F80330DC
:1056E800C0F8AD30D5F80730C0F8B130201D4FF400
:1056F800805117F0D9F92046BDE8704017F022BF55
:105708005CF50200181E0200C368B3F8012091B2CC
:1057180049B1D97839B10448A0F8BC20DA78C0304A
:10572800114617F0DBB970473000002073B53F48C9
:1057380019F093FF0446002876D0017E03290BD088
:1057480005294DD001296CD1038A012B4BD8384A41
:10575800384817F0A7F919E0038A032B02D8364A0C
:105768000121F5E704210C301AF01CF8FF234288C8
:1057780006886376238AC6F30B009A42608309D0B1
:10578800012100922B482D4A15F093FC20460AF07F
:10579800F1FB12E00F2103F01FFF054610B9638BE0
:1057A800274ADDE703F074FF21466076320B28466E
:1057B80003F0F6FC284617F0C5FE224BD3F8143147
:1057C800002B31D0204921481BF0DBFA031E2BDACD
:1057D80001211F4A174802B0BDE8704017F062B9AE
:1057E80008F0A2F8E9E702210C3019F0DBFF0546C2
:1057F800007817F02AF983070CD440F69B23154A42
:105808001549164814F054FF404080F311884FF0B2
:10581800030002DF06232146114A2878FFF712FF0A
:10582800B4E70B460F4A9BE702B070BD4401002065
:1058380084F60200181E02001DF602003EF6020061
:1058480062F6020030000020A8020020181800208C
:10585800A2F50200A0F60200D4F6020002F7020048
:10586800F82602001FF702002DE9F04383B0064630
:1058780002AF907A884614460AF0D2FA3D4D854226
:1058880019D0A47AE84620460AF0CAFA8AB002AAD1
:10589800394BC2E90740C2E90536062355624FF481
:1058A8004251364842F8103F17F015F9C5460437FB
:1058B800BD46BDE8F08320460AF0BAFA4FF00C095D
:1058C8002F4D09FB00504388B3420DD020460AF003
:1058D800AFFA09FB0050438802210093294A334656
:1058E800264815F0E6FBE2E7274ED6F8100120B16E
:1058F8000AF040FB0023C6F8103120460AF098FA57
:105908000C2606FB00504368ABB1B8F1000F12D16A
:1059180020460AF08DFA012106FB00504268D2E9C0
:105928000003127A03F01F06B1405B09DAB100EBFD
:10593800830017F0B9F820460AF07AFA0C2606FB1D
:1059480000508368002BB2D020460AF071FA7043E9
:1059580005F8008020460AF06BFA06FB0055A86897
:1059680011F088FFA3E7C94300EB830017F0B8F8EC
:10597800E1E700BFC00B002033F70200181E020049
:105988000434002068F702003000002038B50421F4
:1059980004460C3019F006FF457801782246408805
:1059A800FFF762FF25B1BDE83840024811F062BF39
:1059B80038BD00BF2801002070B5032104460C3013
:1059C80019F0F0FE40F635420578B0F80100E368BA
:1059D80090421B7806D1BDE870400221074A08486A
:1059E80017F060B822461946FFF73EFF25B1BDE81B
:1059F8007040044811F03EBF70BD00BF9BF7020025
:105A0800181E0200280100202DE9F84F484FDFF842
:105A18004C8107F11409FB6848466FF39433FB6027
:105A280003F0A8FC451C4FF0FF324FF0FF33294626
:105A38003F4812F061FE60B140F6183342463D49D6
:105A48003D4814F035FE404080F311884FF00300C4
:105A580002DF374EDFF8F4B015B912F093FBDAE73E
:105A6800F368C3F38633022B51D9042B59D1337B06
:105A7800002B4FD100220023304819F0D6FD0446F0
:105A880060B940F6AA2342462D492B4814F010FE6F
:105A9800404080F311884FF0030002DFDFF8C0A018
:105AA8004FF0FF324FF0FF33264811F009FFDAF8C4
:105AB80010215AB1244A0121244816F0F1FFDAF8DE
:105AC80010010AF057FA0022CAF81021204619F0EE
